S0110000746573745F6D7769692E737265633E
S11300000C94DF000C94FC000C94FC000C94FC0099
S11300100C94FC000C94FC000C94FC000C94FC006C
S11300200C94FC000C94FC000C940D070C944B07EE
S11300300C94FC000C94FC000C94FC000C94FC004C
S11300400C94FC000C94FC000C94FC000C94FC003C
S11300500C94FC000C9465060C94FC000C94FC00BD
S11300600C94FC000C94FC000C94FC000C94FC001C
S11300700C94FC000C94FC000C94FC000C94FC000C
S11300800C94FC000C94FC000C94FC000C94FC00FC
S11300900C94FC000C94FC000C94FC000C94FC00EC
S11300A00C94FC000C94FC000C94FC00084AD73B14
S11300B03BCE016E84BCBFFDC12F3D6C74319ABD33
S11300C056833DDA3D00C77F11BED9E4BB4C3E9157
S11300D06BAAAABE000000803F05A84CCDB2D44E46
S11300E0B93836A9020C50B9918688083CA6AAAA48
S11300F02ABE000000803F000A00413A20000900A7
S1130100593A20000900583A200000010000A101DA
S113011012000200005E0143000300005A010401C2
S1130120030904460112020309043E0106030309FC
S113013004340108080334003100300000000603D1
S11301404D003200000012034A002E002000460039
S1130150690065006E0065000000040309040902DB
S11301604300020100C03209040000010202010040
S113017005240010010524010101042402060524BC
S11301800600010705820310004009040100020A69
S11301900000000705030240000007058402400038
S11301A0001201000202000010C0167A04000101CE
S11301B00203010001C112018036018136001124BD
S11301C01FBECFEFDAE0DEBFCDBF11E0A0E0B1E0AB
S11301D0E6E1FEE102C005900D92A830B107D9F71F
S11301E021E0A8E0B1E001C01D92A736B207E1F713
S11301F00E94F7050C94090F0C9400000E94550905
S1130200882319F081E08093170108950F931F93B9
S1130210CF93DF93FC01CCE0D1E0BC01685E7F4F5B
S113022001E010E0DE0144E050E0808191818F3FE5
S1130230934041F4828193818F3F934019F4198351
S1130240088302C0198218822D913C91119712964D
S11302508D919C911397820F931F14962D913C912D
S11302601597820F931F16962D913C911797820F25
S1130270931F9A01281B390B36962296E617F70727
S1130280A1F63093150120931401DF91CF911F91B2
S11302900F9108952F923F924F925F926F927F92A7
S11302A08F929F92AF92BF92CF92DF92EF92FF9282
S11302B00F931F93CF93DF93CDB7DEB7CB56D109FE
S11302C00FB6F894DEBF0FBECDBFAA969FAF8EAF18
S11302D0AA979E012F5F3F4FA8963FAF2EAFA897D6
S11302E0A4969FAF8EAFA497612C712C62961FAE1B
S11302F0629766961FAE669767961FAE6797689675
S11303001FAE6897A9963FADA997AB963FAFAB9741
S1130310AA968FADAA97AC968FAFAC97A2967FAEF4
S11303206EAEA297C6C0422C532C7801D8016D91B1
S11303307C9180E090E00E94C70C9B01AC016C961C
S11303406CAD7DAD8EAD9FAD6C970E94360B0E9457
S1130350910C9B01772324F422273327261B370B88
S1130360B901330F880B990B0E94C90C4B015C0136
S1130370F7016281738180E090E00E94C70C9B01C9
S1130380AC01A0966CAD7DAD8EAD9FADA0970E94E3
S1130390360B0E94910C9B01772324F422273327E8
S11303A0261B370BB901330F880B990B0E94C90C1C
S11303B06B017C01A5019401C501B4010E94EC0DFF
S11303C029966CAF7DAF8EAF9FAF2997A50194019D
S11303D0C501B4010E94EC0D4B015C01A70196011B
S11303E0C701B6010E94EC0D9B01AC01C501B4012B
S11303F00E94370B0E94670E6B017C01D3016D9341
S11304007D938D939D933D0162962FAD6297669681
S11304103FAD669767964FAD679768965FAD6897EF
S11304200E94DF0D1816F4F42A964FAE2A972B96E5
S11304305FAE2B97A596BFADA5972E96BFAF2E970F
S1130440A696EFADA6972F96EFAF2F976296CFAEF5
S113045062976696DFAE66976796EFAE6797689683
S1130460FFAE6897FFEF2F1A3F0A0A5F1F4F24E081
S11304702216310409F057CFA2968EAD9FADA297F4
S11304800196A2969FAF8EAFA297A496AEADBFADD4
S1130490A4971696A496BFAFAEAFA497A896EEAD58
S11304A0FFADA8977096A896FFAFEEAFA8970497F4
S11304B0D1F1A1960FADA197A2961FADA297A496D4
S11304C0AEADBFADA4976D917C9180E090E00E94A9
S11304D0C70C6C966CAF7DAF8EAF9FAF6C97A49634
S11304E0EEADFFADA4976281738180E090E00E943D
S11304F0C70CA0966CAF7DAF8EAF9FAFA097A896A8
S11305006EAC7FACA897AB964FACAB97AC965FAC98
S1130510AC97212C312CA5960FAFA597A6961FAFAB
S1130520A697820100CF80E090E020E030E02B9697
S11305304EAD5FAD2B972F966EAD7FAD2F9768179D
S1130540790781F04817590769F0F901EE0FFF1F89
S1130550A1E4B0E0AC0FBD1FEA0FFB1F91838083C1
S11305602F5F3F4F01968430910549F723960EADD6
S11305701FAD23972596EEACFFAC25972F968EAD35
S11305809FAD2F97880F991F880F991FDC01A00F2B
S1130590B11FAA0FBB1FAA0FBB1FE1E0F0E0EC0FD5
S11305A0FD1FAE0FBF1FFC01EE0DFF1DEE0FFF1F61
S11305B0EE0FFF1F21E030E02C0F3D1FE20FF31F71
S11305C020813181428153816D917D918D919C91E6
S11305D00E94370B4B015C012B96AEADBFAD2B9740
S11305E0AA0FBB1FAA0FBB1FFD01E00FF11FEE0FE7
S11305F0FF1FEE0FFF1F81E090E08C0F9D1FE80F9F
S1130600F91FAE0DBF1DAA0FBB1FAA0FBB1FA80F5A
S1130610B91F2D913D914D915C91608171818281D1
S113062093810E94370B9B01AC01C501B4010E9468
S1130630150C88238CF42F96AEADBFAD2F97B093D5
S11306400B01A0930A012B96EEADFFAD2B97F0930F
S11306500901E093080110C02B962EAD3FAD2B97F6
S113066030930B0120930A012F968EAD9FAD2F97E7
S11306709093090180930801E0900A01F0900B0126
S11306800091080110910901F701EE0FFF1FEE0F11
S1130690FF1FE00FF11FEE0FFF1FEE0FFF1FEC0F08
S11306A0FD1F218132814381548160E070E088EE36
S11306B091E40E941F0C2D966CAF7DAF8EAF9FAF5F
S11306C02D976093300170933101809332019093A0
S11306D03301D701AA0FBB1FAE0DBF1DAA0FBB1F4D
S11306E0AA96EEADFFADAA97AE0FBF1F12962D903E
S11306F03C901397F801EE0FFF1FE00FF11FEE0F70
S1130700FF1FAA962EAD3FADAA97E20FF31FE2801A
S1130710F3800D911C91C080D180B10180E090E004
S11307200E94C70C4B015C01B70180E090E00E947D
S1130730C70C9B01AC01C501B4010E94360B4B01EF
S11307405C01B80180E090E00E94C70C2B013C01E1
S1130750B60180E090E00E94C70C9B01AC01C3018C
S1130760B2010E94360BA50194010E94B60B299692
S11307706CAF7DAF8EAF9FAF2997B601600F711F2D
S113078080E090E00E94C70C20E030E040E05FE3AE
S11307900E94EC0D20E030E84CEF53E40E94360B4D
S11307A02B013C0177FA709477F87094B701620DCD
S11307B0731D80E090E00E94C70C20E030E040E030
S11307C05FE30E94EC0D20E030E043EC53E40E9430
S11307D0360B4B015C01B7FAB094B7F8B094299684
S11307E06CAD7DAD8EAD9FAD29970E941A0C6196BC
S11307F06CAF7DAF8EAF9FAF619729966CAD7DAD29
S11308008EAD9FAD29970E94590E65966CAF7DAF52
S11308108EAF9FAF659720E030E0A901609134016D
S11308207091350180913601909137010E94EC0D51
S113083029962CAD3DAD4EAD5FAD29970E94370B87
S113084029966CAF7DAF8EAF9FAF2997609334012B
S113085070933501809336019093370161962CADE6
S11308603DAD4EAD5FAD6197C301B2010E94EC0D89
S11308706B017C0165962CAD3DAD4EAD5FAD6597CA
S1130880C501B4010E94EC0D9B01AC01C701B60186
S11308900E94360B20E030E040E451E40E94360B25
S11308A06B017C0108E311E020E030E0A901D801EC
S11308B06D917D918D919C910E94EC0D9B01AC01F9
S11308C0C701B6010E94370B6B017C01F8016083FC
S11308D071838283938365962CAD3DAD4EAD5FAD40
S11308E06597C301B2010E94EC0D2B013C01619696
S11308F02CAD3DAD4EAD5FAD6197C501B4010E9415
S1130900EC0D9B01AC01C301B2010E94370B20E046
S113091030E040E651E40E94370B4B015C0120E0DB
S113092030E0A901D80114966D917D918D919C912F
S113093017970E94EC0D9B01AC01C501B4010E9404
S1130940370B4B015C01F8016483758386839783BD
S1130950A4E2B1E02D913D914D915C911397E8E1B2
S1130960F1E0208331834283538314964D905D904C
S11309706D907C9017974482558266827782189690
S11309808D919D910D90BC91A02D80879187A28718
S1130990B3878091160181112FC004E211E0A701F1
S11309A096012D966CAD7DAD8EAD9FAD2D970E94B9
S11309B0EC0DD8016D937D938D939C931397A501B2
S11309C094012D966CAD7DAD8EAD9FAD2D970E949B
S11309D0EC0DF801648375838683978329968CAD27
S11309E09DADAEADBFAD299780879187A287B387B0
S11309F081E08093160147C0C701B6010E94360BFF
S1130A009F7720E030E040E251E40E94150C8823F7
S1130A10D4F5A3019201C501B4010E94360B9F775E
S1130A2020E030E040E251E40E94150C88235CF59C
S1130A3004E211E0A70196012D966CAD7DAD8EAD5B
S1130A409FAD2D970E94EC0DD8016D937D938D93EE
S1130A509C931397A50194012D966CAD7DAD8EAD3D
S1130A609FAD2D970E94EC0DF801648375838683F6
S1130A70978329968CAD9DADAEADBFAD2997808788
S1130A809187A287B387C559DF4F0FB6F894DEBFAD
S1130A900FBECDBFDF91CF911F910F91FF90EF90CB
S1130AA0DF90CF90BF90AF909F908F907F906F908A
S1130AB05F904F903F902F900895CF92DF92EF92E6
S1130AC0FF920F931F93CF93DF93C0903001D09088
S1130AD03101E0903201F0903301C4E2D1E008E347
S1130AE011E0A7019601F8016081718182819381EF
S1130AF00E94EC0D688379838A839B83F8012481A7
S1130B00358146815781C701B6010E94EC0D6C8383
S1130B107D838E839F838091340190913501A091D0
S1130B203601B091370188879987AA87BB87DF91FF
S1130B30CF911F910F91FF90EF90DF90CF90089588
S1130B40CF93DF93EC010E940601209114013091B0
S1130B50150122303105A9F03CF421153105B9F015
S1130B602130310589F016C02330310539F02430A5
S1130B70310581F4CE010E944A010EC00E945D0538
S1130B800BC00E945D0508C00E945D0505C00E945F
S1130B905D0502C00E945D05DF91CF910895CF935A
S1130BA0DF93EC0180911701811102C00E94FE00C5
S1130BB0CE010E94A00584E291E00E94090BDF911E
S1130BC0CF9108956E9A769A6A9A729AE1E6F0E065
S1130BD080E8808310820E9496060E94550981E76E
S1130BE092E00E94130B81E00E94270B08950E945B
S1130BF0E2056A9A72980E94AF068823E1F36E9A1E
S1130C007698C4E086E091E00E94CE08E0915E010F
S1130C10F0915F0160817181828193810E94910CC6
S1130C20CB010E94EA0884E091E00E94CE0880E0B3
S1130C3091E00E94CE08E0915E01F0915F01648131
S1130C407581868197810E94910CCB010E94EA08EC
S1130C508EEF90E00E94CE088AEF90E00E94CE08CA
S1130C60E0915E01F0915F012EEB3EE245E652E435
S1130C7060857185828593850E94EC0D0E94910C9C
S1130C80CB010E94EA0888EF90E00E94CE08809190
S1130C90400190914101892B09F4B4CF82E491E0A1
S1130CA00E94760A109241011092400182E491E080
S1130CB00E94CF050E940E0B90935F0180935E010A
S1130CC06A9A8EB18C278EB99DCF1F920F920FB660
S1130CD00F9211248F939F93809140019091410131
S1130CE0892B31F06E9A9EB180E489278EB906C0B3
S1130CF081E090E090934101809340019F918F9116
S1130D000F900FBE0F901F901895589A599A5A9A9F
S1130D108CE08093B800E9E6F0E080818062808313
S1130D2080818F7E8083EA9A7894089581E080930D
S1130D30D70080EA8093D80082E189BD09B400FE1F
S1130D40FDCF80E98093D8001092E00010925D01FD
S1130D5010925A018CE08093E20078940895809177
S1130D605D010895CF93DF9390915D01992309F478
S1130D704CC09FB7F89424E02093E90020915B01D4
S1130D80222349F02091E80025FD03C09FBF8FEF87
S1130D9041C010925B013091E400375E2091E8007D
S1130DA025FD24C09FBF9091E400931781F090919A
S1130DB05D01992361F1A9EEB0E044E0E8EEF0E0D2
S1130DC0C4EED0E00DC09FBF9881931305C081E0AD
S1130DD080935B018FEF1EC090915D019923C9F050
S1130DE09FB7F8944C93208125FFEDCF8093F100B9
S1130DF08091E80085FD03C08AE38093E80085E0E4
S1130E0080935C019FBF80E005C08FEF03C08FEF2C
S1130E1001C08FEFDF91CF9108951F920F920FB60B
S1130E200F9211248F939F93EF93FF93E1EEF0E0E1
S1130E308081108283FF11C01092E90091E09093A9
S1130E40EB001092EC0092E19093ED0098E0909307
S1130E50F00010925D0110925A0182FF13C080913C
S1130E605D01882379F080915C01882359F08150D9
S1130E7080935C01811106C084E08093E9008AE3D9
S1130E808093E800FF91EF919F918F910F900FBE97
S1130E900F901F9018951F920F920FB60F92112466
S1130EA00F931F932F933F934F935F936F937F936E
S1130EB08F939F93AF93BF93CF93DF93EF93FF935E
S1130EC01092E9008091E80083FF4CC1E1EFF0E06B
S1130ED0608180812081908130E0392B4081908134
S1130EE050E0592B7081C08192EF9093E8008630D6
S1130EF009F058C004C081E28093EB003AC166E077
S1130F008AE091E0FC01A591B4912A173B0711F006
S1130F10079623C0FC013296A591B4914A175B074A
S1130F2011F007961AC0FC01349645915491FC01C6
S1130F3036962491872F90E09C2B8F3F910519F0D2
S1130F4010F08FEF90E0821708F4282FA8EEB0E09D
S1130F5070E16EEFC1EFD0E003C0615099F6CBCFE2
S1130F608C91982F9570E1F382FD03C1322F2131CA
S1130F7008F0372F332309F4F9C0FA01832F949131
S1130F809883815031968111FACF8FEF830F90E0CF
S1130F900196480F591F231B6C932111E1CF303167
S1130FA0F9F2E7C0853061F48EEF8093E800E8EE53
S1130FB0F0E0808180FFFDCF20682093E300D9C05A
S1130FC0893009F035C06111CDC020935D011092C4
S1130FD05A0110925C018EEF8093E80081E023EBCC
S1130FE031E0C9EED0E0ABEEB0E00CEE10E06DEE17
S1130FF070E08883A9014F5F5F4FF90194919C933E
S1131000992361F0FA014491F8014083F901329681
S113101094912D5F3F4FFB01908301C09A018F5F34
S1131020853039F7EAEEF0E08EE180831082A1C0CA
S1131030883081F4603809F095C0E8EEF0E08081F2
S113104080FFFDCF80915D018093F1008EEF80934E
S1131050E8008FC08132B9F4613A09F083C0E8EE48
S1131060F0E0808180FFFDCFE0E0F1E027E031E0B7
S1131070A1EFB0E081918C93E217F307D9F78EEFDB
S11310808093E80076C08032D1F4613209F06AC0FE
S1131090E8EEF0E0808182FFFDCFE0E0F1E027E0C0
S11310A031E0A1EFB0E08C918193E217F307D9F717
S11310B0E8EEF0E08BEF80838EEF80835AC08232BB
S11310C071F4613209F04EC020935A01E8EEF0E069
S11310D0808180FFFDCF8EEF8093E8004AC08111AC
S11310E01AC0E8EEF0E0808180FFFDCF623851F451
S11310F0E9EEF0E040838091EB0085FB882780F9DE
S1131100108201C080E0E1EFF0E0808310828EEF76
S11311108093E8002EC0982F9D7F913019F562309E
S113112009F5232BF9F44F779FEF940F9430D0F403
S11311309EEF9093E8004093E900833021F481E22C
S11311408093EB0016C089E18093EB0081E090E08E
S113115002C0880F991F4A95E2F7EAEEF0E0808317
S1131160108207C081E28093EB0003C06C932111CD
S1131170F7CEFF91EF91DF91CF91BF91AF919F9106
S11311808F917F916F915F914F913F912F911F911B
S11311900F910F900FBE0F901F9018950F931F93F0
S11311A0CF938C010F5F1F4FFC01C491CC2371F0CE
S11311B0CA3019F48DE00E94B2068C2F0E94B20648
S11311C0F801C4910F5F1F4FC111F2CFCF911F914E
S11311D00F910895EF92FF920F931F93CF93DF9394
S11311E0CDB7DEB727970FB6F894DEBF0FBECDBFDD
S11311F08E010F5F1F4F27E0F80111922A95E9F73E
S11312004AE0B8010E94D40E7E01F8E0EF0EF11C12
S1131210F80181918F0181110E94B2060E151F05FC
S1131220B9F727960FB6F894DEBF0FBECDBFDF9196
S1131230CF911F910F91FF90EF90089520E030E03F
S1131240ECEBF0E08081882334F02F5F3F4F293EA0
S113125083E03807B9F781E0283E334009F480E0A1
S113126008958093BB0084E88093BC000E941E090B
S1131270882319F08091B900887F0895CF93C82FEF
S113128094EA9093BC000E941E09882361F08C2F7D
S1131290880F0E943109803229F484E98093BC00CC
S11312A080E001C081E0CF9108950E94850688E521
S11312B00E943E09882309F4CDC080E30E943109CD
S11312C0882309F4C9C081E00E943109882309F404
S11312D0C5C084E98093BC0083EC99E00197F1F7E1
S11312E000C0000088E50E943E09882309F4B8C0C4
S11312F080E00E943109882309F4B4C080E00E9490
S11313003109882309F4B0C080E00E9431098823A0
S113131009F4ACC080E00E943109882309F4A8C014
S113132080E00E943109882309F4A4C080E00E946F
S11313303109882309F4A0C080E00E943109882380
S113134009F49CC080E90E943109882309F498C0FB
S113135084E98093BC0083EC99E00197F1F700C025
S1131360000088E50E943E09882309F48BC087E0C9
S11313700E943109882309F487C080E00E94310962
S1131380882309F483C081E40E943109882309F485
S11313907FC084E98093BC0083EC99E00197F1F766
S11313A000C0000088E50E943E09882309F472C049
S11313B08AE10E943109882309F46EC080E40E9406
S11313C03109882309F46AC080E00E943109882326
S11313D009F466C084E98093BC0083EC99E001972A
S11313E0F1F700C0000088E50E943E09882309F453
S11313F059C083E30E943109882309F455C083E06E
S11314000E943109882309F451C084E98093BC0007
S113141083EC99E00197F1F700C0000088E50E9491
S11314203E09882309F444C080E30E9431098823DB
S113143009F440C088E00E9431098823E9F184E975
S11314408093BC0083EC99E00197F1F700C00000A1
S113145081E0089580E0089580E0089580E0089593
S113146080E0089580E0089580E0089580E0089584
S113147080E0089580E0089580E0089580E0089574
S113148080E0089580E0089580E0089580E0089564
S113149080E0089580E0089580E0089580E0089554
S11314A080E0089580E0089580E0089580E0089544
S11314B080E0089580E0089580E00895CF93C82FD8
S11314C084EA8093BC000E941E09882369F08C2F53
S11314D0880F8F5F0E943109883429F484E980934E
S11314E0BC0080E001C081E0CF9108950F931F9369
S11314F0CF93DF93CDB7DEB760970FB6F894DEBF16
S11315000FBECDBF8C01FE01319680E1DF011D923B
S11315108A95E9F788E50E943E09882309F469C0A1
S113152086E30E943109882309F465C084E9809325
S1131530BC00B8E0BA95F1F7000088E50E945E0AA5
S1131540882309F45AC0BE016F5F7F4FAE01405F2C
S11315505F4FECEBF0E084EC2BEB30E08083908188
S11315609923ECF7D9019C91DB019D93BD01A4174C
S1131570B507A1F784E88093BC00ECEBF0E0808130
S11315808823ECF78091BB00888B84E98093BC00AE
S1131590BE016C5F7F4FF801085E1F4FDB012C9189
S11315A0322F3073CB010297DC018C9190E0B0E1D3
S11315B03B9F800D911D112491838083422F407C99
S11315C050E0440F551F440F551FCB010197DC0118
S11315D08C91480F511D538342832F7030E0358323
S11315E024836D5F7F4F3696E017F107B9F681E0EB
S11315F005C080E003C080E001C080E060960FB6C3
S1131600F894DEBF0FBECDBFDF91CF911F910F9134
S11316100895909364018093630108958091630118
S113162090916401089587BD85B5846085BD85B5B5
S11316308D7F85BD85B5816085BD85B5877F85BD79
S113164084B5826084BD84B58E7F84BD089588236B
S113165039F0EEE6F0E0808182608083789408952A
S1131660EEE6F0E080818E7F808308955058BB279A
S1131670AA270E944E0B0C94910D0E94580D38F02D
S11316800E945F0D20F039F49F3F19F426F40C9466
S11316902E0D0EF4E095E7FB0C94280DE92F0E9423
S11316A0B60D58F3BA17620773078407950720F03D
S11316B079F4A6F50C94D80D0EF4E0950B2EBA2F00
S11316C0A02D0B01B90190010C01CA01A001112444
S11316D0FF27591B99F0593F50F4503E68F11A16F0
S11316E0F040A22F232F342F4427585FF3CF469581
S11316F037952795A795F0405395C9F77EF41F16A3
S1131700BA0B620B730B840BBAF09150A1F0FF0F6C
S1131710BB1F661F771F881FC2F70EC0BA0F621F58
S1131720731F841F48F4879577956795B795F79548
S11317309E3F08F0B0CF9395880F08F09927EE0FDD
S11317409795879508950E94580D60F080E891E080
S113175009F49EEF0E945F0D28F040E851E071F417
S11317605EEF0CC00C942E0D0C94D80DE92FE0788C
S11317700E94B60D40F3092E052AB1F32617370748
S11317804807590738F00E2E07F8E02569F0E025E0
S1131790E0640AC0EF6307F8009407FADB01B901BB
S11317A09D01DC01CA01AD01EF930E94360C0E9439
S11317B0910D0E94E60B5F91552339F02BED3FE02C
S11317C049E450FD49EC0C94370B0895DF93DD2771
S11317D0B92FBF7740E85FE31616170648075B0783
S11317E018F4D92F0E94E40D9F938F937F936F93E6
S11317F00E94A70EECEAF0E00E94310D0E94910DC8
S11318002F913F914F915F910E94FF0DDD2351F085
S11318109058A2EA2AED3FE049EC5FE3D0785D27D7
S11318200E944E0BDF910C94910D0E94040D08F45C
S113183081E008950E94680DE3950C94A20D0E9426
S1131840330C0C94910D0E945F0D58F00E94580DBA
S113185040F029F45F3F29F00C94280D51110C94A9
S1131860D90D0C942E0D0E94B60D68F39923B1F393
S1131870552391F3951B550BBB27AA2762177307B2
S1131880840738F09F5F5F4F220F331F441FAA1F46
S1131890A9F335D00E2E3AF0E0E832D09150504002
S11318A0E695001CCAF72BD0FE2F29D0660F771FB0
S11318B0881FBB1F261737074807AB07B0E809F096
S11318C0BB0B802DBF01FF2793585F4F3AF09E3F1B
S11318D0510578F00C94280D0C94D90D5F3FE4F376
S11318E0983ED4F3869577956795B795F7959F5F5E
S11318F0C9F7880F911D9695879597F90895E1E0AA
S1131900660F771F881FBB1F621773078407BA0708
S113191020F0621B730B840BBA0BEE1F88F7E09563
S113192008950E94980C6894B1110C94D90D0895EF
S11319300E94BE0D88F09F5798F0B92F9927B75190
S1131940B0F0E1F0660F771F881F991F1AF0BA955F
S1131950C9F714C0B13091F00E94D80DB1E00895D8
S11319600C94D80D672F782F8827B85F39F0B93FCA
S1131970CCF3869577956795B395D9F73EF4909512
S11319808095709561957F4F8F4F9F4F0895E89490
S113199009C097FB3EF490958095709561957F4FB3
S11319A08F4F9F4F9923A9F0F92F96E9BB27939561
S11319B0F695879577956795B795F111F8CFFAF471
S11319C0BB0F11F460FF1BC06F5F7F4F8F4F9F4FA2
S11319D016C0882311F096E911C0772321F09EE800
S11319E0872F762F05C0662371F096E8862F70E066
S11319F060E02AF09A95660F771F881FDAF7880F40
S1131A009695879597F90895990F0008550FAA0B95
S1131A10E0E8FEEF16161706E807F907C0F01216FD
S1131A201306E407F50798F0621B730B840B950B00
S1131A3039F40A2661F0232B242B252B21F4089555
S1131A400A2609F4A140A6958FEF811D811D0895F2
S1131A5097F99F6780E870E060E008959FEF80EC5D
S1131A600895DF93CF931F930F93FF92EF92DF922A
S1131A707B018C01689406C0DA2EEF010E94FF0DF1
S1131A80FE01E894A5912591359145915591A6F3D0
S1131A90EF010E944E0BFE019701A801DA9469F749
S1131AA0DF90EF90FF900F911F91CF91DF910895F8
S1131AB000240A9416161706180609060895002429
S1131AC00A94121613061406050608950C942E0D96
S1131AD00E94BE0DD8F3E894E0E0BB279F57F0F0D6
S1131AE02AED3FE049EC06C0EE0FBB0F661F771FDF
S1131AF0881F28F0B23A62077307840728F0B25AA5
S1131B00620B730B840BE3959A9572F7803830F46B
S1131B109A95BB0F661F771F881FD2F790480C94C5
S1131B20AD0E092E0394000C11F4882352F0BB0F60
S1131B3040F4BF2B11F460FF04C06F5F7F4F8F4FE1
S1131B409F4F0895EF93E0FF07C0A2EA2AED3FE01C
S1131B5049EC5FEB0E944E0B0E94910D0F90039491
S1131B6001FC9058E9EDF0E00C94C00E57FD90583C
S1131B70440F551F59F05F3F71F04795880F97FB4D
S1131B80991F61F09F3F79F0879508951216130607
S1131B901406551FF2CF4695F1DF08C01616170636
S1131BA01806991FF1CF869571056105089408956B
S1131BB0E894BB2766277727CB0197F908950E94FD
S1131BC0040D08F48FEF08959B01AC0160E070E010
S1131BD080E89FE30C941F0C0E94FF0D0C94910D60
S1131BE00E94580D38F00E945F0D20F0952311F0EB
S1131BF00C94280D0C942E0D11240C94D90D0E94D4
S1131C00B60D70F3959FC1F3950F50E0551F629F79
S1131C10F001729FBB27F00DB11D639FAA27F00D41
S1131C20B11DAA1F649F6627B00DA11D661F829F68
S1131C302227B00DA11D621F739FB00DA11D621F4D
S1131C40839FA00D611D221F749F3327A00D611D6A
S1131C50231F849F600D211D822F762F6A2F11244C
S1131C609F5750409AF0F1F088234AF0EE0FFF1F7F
S1131C70BB1F661F771F881F91505040A9F79E3FD6
S1131C80510580F00C94280D0C94D90D5F3FE4F3BA
S1131C90983ED4F3869577956795B795F795E7952C
S1131CA09F5FC1F7FE2B880F911D9695879597F935
S1131CB008959F930E94680D0F9007FCEE5F0C94AB
S1131CC0A20D19F416F40C942E0D0C94AB0E0E9474
S1131CD0BE0DB8F39923C9F3B6F39F57550B87FF8D
S1131CE00E94B90E0024A0E640EA9001805856955F
S1131CF0979528F4805C660F771F881F20F02617BD
S1131D003707480730F4621B730B840B20293129F1
S1131D104A2BA69517940794202531254A2758F76E
S1131D20660F771F881F20F026173707480730F4FF
S1131D30620B730B840B200D311D411DA09581F79F
S1131D40B901842F9158880F9695879508959B0122
S1131D50AC010C94EC0D9F3F31F0915020F4879529
S1131D6077956795B795880F911D9695879597F9FF
S1131D70089591505040660F771F881FD2F7089539
S1131D809F938F937F936F93FF93EF939B01AC018A
S1131D900E94EC0DEF91FF910E94310D2F913F9124
S1131DA04F915F910C94EC0DBB274A3031F4992389
S1131DB022F4BDE2909581959F4F0C94E00EBB27D1
S1131DC0FB015527AA27880F991FAA1FA41710F0F3
S1131DD0A41B83955051B9F7A05DAA3308F0A95DFF
S1131DE0A193009779F7B111B1931192CB010C949F
S1131DF0F90EDC01FC01672F71917723E1F732972B
S1131E0004C07C916D9370836291AE17BF07C8F3D1
S1091E100895F894FFCFD1
S10B1E1600E1000000000800D7
S9030000FC
