S0100000526F626F636B65792E73726563D6
S11300000C94E8000C9405010C9405010C94D40F95
S11300100C9405010C9405010C9405010C94050144
S11300200C9405010C9405010C94FA010C9438020B
S11300300C9405010C9405010C9405010C94050124
S11300400C9405010C9405010C9405010C94050114
S11300500C9405010C94E80F0C9405010C94050113
S11300600C9405010C9405010C9405010C940501F4
S11300700C9405010C9405010C9405010C940501E4
S11300800C9405010C9405010C9405010C940501D4
S11300900C9405010C9405010C9405010C940501C4
S11300A00C9405010C9405010C9405018F0E940E1B
S11300B0990E9E0EA30E8A0EA80EAD0EB20EB70EAA
S11300C0D30ED60E250F310F7A0FBB0FC20FC90FF7
S11300D0084AD73B3BCE016E84BCBFFDC12F3D6CAB
S11300E074319ABD56833DDA3D00C77F11BED9E411
S11300F0BB4C3E916BAAAABE000000803F05A84CF1
S1130100CDB2D44EB93836A9020C50B991868808BC
S11301103CA6AAAA2ABE000000803F0000010000FD
S1130120B3011200020000700143000300006C01DF
S113013004010309045801120203090450010603CF
S113014003090446010808033400310030000000AC
S113015006034D003200000012034A002E00200066
S11301604600690065006E00650000000403090490
S113017009024300020100C0320904000001020226
S113018001000524001001052401010104240206D4
S1130190052406000107058203100040090401003C
S11301A0020A00000007050302400000070584025C
S11301B04000001201000202000010C0167A040080
S11301C001010203010001C11201803601813600E0
S11301D011241FBECFEFDAE0DEBFCDBF11E0A0E0F7
S11301E0B1E0EEE5FDE202C005900D92A034B10746
S11301F0D9F721E0A0E4B1E001C01D92A93DB20706
S1130200E1F70E943E0E0C94AD160C940000ECE74E
S1130210F0E080818F778083808180648083EAE747
S1130220F0E080818460808380818260808380812B
S11302308160808380E885BF85BF0895EAE7F0E0A8
S113024080818F778083AEE7B0E08C9181608C935E
S1130250ABE7B0E08C918F7D8C93ACE7B0E08C91F0
S11302608B7F8C938C918D7F8C938C918E7F8C93D0
S1130270808180688083808180648083808184FF22
S1130280FDCF609178007091790080E090E00E9449
S11302909A140895EAE7F0E080818F778083AEE7CF
S11302A0B0E08C9182608C93ABE7B0E08C918F7D51
S11302B08C93ACE7B0E08C918B7F8C938C918D7F89
S11302C08C938C9181608C93808180688083808101
S11302D080648083808184FFFDCF60917800709179
S11302E0790080E090E00E949A140895EAE7F0E033
S11302F080818F778083AEE7B0E08C9180618C93AE
S1130300ABE7B0E08C918F7D8C93ACE7B0E08C913F
S113031084608C938C918D7F8C938C918E7F8C9345
S1130320808180688083808180648083808184FF71
S1130330FDCF609178007091790080E090E00E9498
S11303409A140895EAE7F0E080818F778083AEE71E
S1130350B0E08C9180628C93ABE7B0E08C918F7DA0
S11303608C93ACE7B0E08C9184608C938C918D7FFE
S11303708C938C9181608C93808180688083808150
S113038080648083808184FFFDCF609178007091C8
S1130390790080E090E00E949A140895EAE7F0E082
S11303A080818F778083AEE7B0E08C9180648C93FA
S11303B0ABE7B0E08C918F7D8C93ACE7B0E08C918F
S11303C084608C938C9182608C938C918E7F8C93BF
S11303D0808180688083808180648083808184FFC1
S11303E0FDCF609178007091790080E090E00E94E8
S11303F09A1408951F920F920FB60F9211248F939F
S11304009F93EF93FF93E1EEF0E08081108283FFEE
S113041011C01092E90091E09093EB001092EC006F
S113042092E19093ED0098E09093F00010924201D5
S11304301092400182FF13C080914201882379F019
S113044080914101882359F08150809341018111A9
S113045006C084E08093E9008AE38093E800FF917A
S1130460EF919F918F910F900FBE0F901F90189551
S11304701F920F920FB60F9211240F931F932F9375
S11304803F934F935F936F937F938F939F93AF9318
S1130490BF93CF93DF93EF93FF931092E900809182
S11304A0E80083FF4CC1E1EFF0E0608180812081AE
S11304B0908130E0392B4081908150E0592B70813C
S11304C0C08192EF9093E800863009F058C004C0D0
S11304D081E28093EB003AC166E08CE191E0FC019B
S11304E0A591B4912A173B0711F0079623C0FC018C
S11304F03296A591B4914A175B0711F007961AC07A
S1130500FC01349645915491FC0136962491872F31
S113051090E09C2B8F3F910519F010F08FEF90E045
S1130520821708F4282FA8EEB0E070E16EEFC1EF57
S1130530D0E003C0615099F6CBCF8C91982F957081
S1130540E1F382FD03C1322F213108F0372F332329
S113055009F4F9C0FA01832F94919883815031965C
S11305608111FACF8FEF830F90E00196480F591F46
S1130570231B6C932111E1CF3031F9F2E7C08530B0
S113058061F48EEF8093E800E8EEF0E0808180FF74
S1130590FDCF20682093E300D9C0893009F035C02D
S11305A06111CDC02093420110924001109241018B
S11305B08EEF8093E80081E025EC31E0C9EED0E0D5
S11305C0ABEEB0E00CEE10E06DEE70E08883A901B4
S11305D04F5F5F4FF90194919C93992361F0FA0165
S11305E04491F8014083F901329694912D5F3F4F75
S11305F0FB01908301C09A018F5F853039F7EAEEE1
S1130600F0E08EE180831082A1C0883081F46038EC
S113061009F095C0E8EEF0E0808180FFFDCF809185
S113062042018093F1008EEF8093E8008FC0813205
S1130630B9F4613A09F083C0E8EEF0E0808180FF0C
S1130640FDCFE0E0F1E027E031E0A1EFB0E08191FF
S11306508C93E217F307D9F78EEF8093E80076C006
S11306608032D1F4613209F06AC0E8EEF0E08081B2
S113067082FFFDCFE0E0F1E027E031E0A1EFB0E060
S11306808C918193E217F307D9F7E8EEF0E08BEF52
S113069080838EEF80835AC0823271F4613209F014
S11306A04EC020934001E8EEF0E0808180FFFDCF52
S11306B08EEF8093E8004AC081111AC0E8EEF0E0A2
S11306C0808180FFFDCF623851F4E9EEF0E0408391
S11306D08091EB0085FB882780F9108201C080E0BF
S11306E0E1EFF0E0808310828EEF8093E8002EC06B
S11306F0982F9D7F913019F5623009F5232BF9F479
S11307004F779FEF940F9430D0F49EEF9093E800CE
S11307104093E900833021F481E28093EB0016C01A
S113072089E18093EB0081E090E002C0880F991F7B
S11307304A95E2F7EAEEF0E08083108207C081E296
S11307408093EB0003C06C932111F7CEFF91EF91DE
S1130750DF91CF91BF91AF919F918F917F916F91D5
S11307605F914F913F912F911F910F910F900FBE69
S11307700F901F9018958093C90108958091C90125
S113078008958093C80108958091C80108959093B5
S1130790CB018093CA0108958091CA019091CB0145
S11307A00895609361017093620180936301909353
S11307B064010895CF92DF92EF92FF926B017C0166
S11307C00E94CC039093500180934F01FC0120853B
S11307D0318542855385C701B6010E9409136B0117
S11307E07C0126C020E030E0A901C701B6010E94C7
S11307F0B21518167CF429EF3FE049EC50E4C70128
S1130800B6010E940913462F572F682F792F6A01CA
S11308107B010EC029EF3FE049EC50E4C701B6016B
S11308200E940A13462F572F682F792F6A017B01E4
S113083029EF3FE049E450E4C701B6019F770E94E5
S1130840B21518167CF2C0925901D0925A01E09266
S11308505B01F0925C01FF90EF90DF90CF900895E0
S1130860CF92DF92EF92FF92CF93DF936B017C01E3
S1130870EA0120E030E040E85FE30E94B215181678
S113088044F40F2EC12CD12CF0E8EF2EFFE3FF2E01
S1130890F02D219719F4289A299802C02898299AAA
S11308A080E094E0909389008093880020E030E019
S11308B040E854E4C701B6010E94BF150E946414C5
S11308C070938B0060938A0080914D0190914E014A
S11308D0892B31F5E1E8F0E080818B7F8083808192
S11308E08260808380818E7F808380818061808329
S11308F0808188608083E0E8F0E08081826080838A
S113090080818160808380818062808380818F7E0A
S11309108083269A81E090E090934E0180934D016C
S1130920DF91CF91FF90EF90DF90CF900895CF9219
S1130930DF92EF92FF92CF93DF936B017C01EA0188
S113094020E030E040E85FE30E94B215181644F45A
S11309500F2EC12CD12CF0E8EF2EFFE3FF2EF02D4B
S1130960219719F42A9A2B9802C02A982B9A80E08E
S113097094E0909397008093960020E030E040E864
S113098054E4C701B6010E94BF150E946414709319
S113099099006093980080914B0190914C01892BB0
S11309A031F5E1E9F0E080818B7F80838081826092
S11309B0808380818E7F8083808180618083808139
S11309C088608083E0E9F0E08081826080838081B8
S11309D08E7F808380818068808380818F7B808309
S11309E03E9A81E090E090934C0180934B01DF911B
S11309F0CF91FF90EF90DF90CF9008950E94CC03A9
S1130A009093500180934F0141E050E06DEC7CECF9
S1130A108CE49EE30E94970440E050E06DEC7CEC93
S1130A208CE49EE30E94300408954F925F926F928B
S1130A307F928F929F92AF92BF92CF92DF92EF926A
S1130A40FF920F931F93CF93DF937C018B010E943E
S1130A50CC03EC019093500180934F01B701FF0C3C
S1130A60880B990B0E949C14288139814A815B81EF
S1130A700E9409136B017C01B801110F880B990BBB
S1130A800E949C142C813D814E815F810E94091338
S1130A90A70196010E9489130E94DA03C0905901AC
S1130AA0D0905A01E0905B01F0905C0120E030E0CE
S1130AB0A901C701B6010E94BF15209147013091D9
S1130AC048014091490150914A010E940A134B0187
S1130AD05C016093470170934801809349019093AE
S1130AE04A0120915D0130915E0140915F01509176
S1130AF06001C701B6010E94091320E030E0A9019A
S1130B000E94BF152B013C01C0925D01D0925E0191
S1130B10E0925F01F09260012DEC3CEC4CEC5EE362
S1130B20C701B6010E94BF15A50194010E940A13D2
S1130B30A30192010E940A136B017C01E894F7F867
S1130B408090550190905601A0905701B0905801A3
S1130B5020E030E0A901C501B4010E94B2151816C5
S1130B60ECF48090610190906201A0906301B090D8
S1130B706401A7019601C501B4010E940A13062F5E
S1130B80172FD82FC92FA7019601C501B4010E94C0
S1130B900913D62EC72EF82EE92E3AC020E030E0F5
S1130BA0A901C501B4010E94E8138823ECF48090E4
S1130BB0610190906201A0906301B0906401A7016B
S1130BC09601C501B4010E940913062F172FD82FCF
S1130BD0C92FA5019401C701B6010E940A13D62E9C
S1130BE0C72EF82EE92E14C02091610130916201C4
S1130BF04091630150916401C701B6010E940A1338
S1130C00062F172FD82FC92FD62EC72EF82EE92E30
S1130C1020E030E040E85FE3602F712F8D2F9C2FA0
S1130C200E94B215181684F020E030E0A901602F6C
S1130C30712F8D2F9C2F0E94E81388234CF400E021
S1130C4010E0D0E0C0E004C000E010E0D0E8CFE362
S1130C5020E030E040E85FE36D2D7C2D8F2D9E2D4C
S1130C600E94B215181684F020E030E0A9016D2D21
S1130C707C2D8F2D9E2D0E94E813882374F4D12C93
S1130C80C12CF12CE12C09C0D12CC12C6894FF2477
S1130C90F7F80F2EFFE3EF2EF02D41E050E0602F28
S1130CA0712F8D2F9C2F0E94300441E050E06D2D58
S1130CB07C2D8F2D9E2D0E949704DF91CF911F9143
S1130CC00F91FF90EF90DF90CF90BF90AF909F90E7
S1130CD08F907F906F905F904F9008954F925F92A6
S1130CE06F927F928F929F92AF92BF92CF92DF9238
S1130CF0EF92FF920F931F93CF93DF936B017C01CD
S1130D006093550170935601809357019093580155
S1130D1020E030E0A9010E94BF15209143013091E9
S1130D20440140914501509146010E940A134B0130
S1130D305C01609343017093440180934501909357
S1130D40460120915101309152014091530150913B
S1130D505401C701B6010E94091320E030E0A90143
S1130D600E94BF152B013C01C0925101D092520147
S1130D70E0925301F09254012AE939E949E15FE331
S1130D80C701B6010E94BF15A50194010E940A1370
S1130D90A30192010E940A134B015C01E894B7F885
S1130DA020E030E0A901C701B6010E94B21518166F
S1130DB0ECF4C0906101D0906201E0906301F09086
S1130DC06401A5019401C701B6010E940A13062F0C
S1130DD0172FD82FC92FA5019401C701B6010E946E
S1130DE00913D62EC72EF82EE92E3AC020E030E0A3
S1130DF0A901C701B6010E94E8138823ECF4C0904E
S1130E006101D0906201E0906301F0906401A5015A
S1130E109401C701B6010E940913062F172FD82F7A
S1130E20C92FA7019601C501B4010E940A13D62E49
S1130E30C72EF82EE92E14C0209161013091620171
S1130E404091630150916401C501B4010E940A13E9
S1130E50062F172FD82FC92FD62EC72EF82EE92EDE
S1130E6020E030E040E85FE3602F712F8D2F9C2F4E
S1130E700E94B215181684F020E030E0A901602F1A
S1130E80712F8D2F9C2F0E94E81388234CF400E0CF
S1130E9010E0D0E0C0E004C000E010E0D0E8CFE310
S1130EA020E030E040E85FE36D2D7C2D8F2D9E2DFA
S1130EB00E94B215181684F020E030E0A9016D2DCF
S1130EC07C2D8F2D9E2D0E94E813882374F4D12C41
S1130ED0C12CF12CE12C09C0D12CC12C6894FF2425
S1130EE0F7F80F2EFFE3EF2EF02D41E050E0602FD6
S1130EF0712F8D2F9C2F0E94300441E050E06D2D06
S1130F007C2D8F2D9E2D0E949704DF91CF911F91F0
S1130F100F91FF90EF90DF90CF90BF90AF909F9094
S1130F208F907F906F905F904F900895E1E8F0E08C
S1130F3080818B7F808380818D7F808380818E7F81
S1130F408083269810924E0110924D010895E1E994
S1130F50F0E080818B7F808380818D7F808380819E
S1130F608E7F80833E9810924C0110924B0108951D
S1130F700E94A7070E94960708950E94551188238E
S1130F8019F081E08093730108950F931F93CF9319
S1130F90DF93FC01C9E6D1E0BC01685E7F4F01E04C
S1130FA010E0DE0144E050E0808191818F3F934066
S1130FB041F4828193818F3F934019F4198308830C
S1130FC002C0198218822D913C91119712968D912D
S1130FD09C911397820F931F14962D913C91159712
S1130FE0820F931F16962D913C911797820F931F92
S1130FF09A01281B390B36962296E617F707A1F6B5
S11310003093720120937101DF91CF911F910F9161
S113101008952F923F924F925F926F927F928F9298
S11310209F92AF92BF92CF92DF92EF92FF920F9373
S11310301F93CF93DF93CDB7DEB7CE56D1090FB64A
S1131040F894DEBF0FBECDBFAD969FAF8EAFAD9708
S11310509E012F5F3F4FAB963FAF2EAFAB97A79646
S11310609FAF8EAFA797612C712C62961FAE6297CB
S113107066961FAE66976A961FAE6A976B961FAE0A
S11310806B97AC963FADAC97AE963FAFAE97AD962F
S11310908FADAD97AF968FAFAF97A5967FAE6EAE7F
S11310A0A597C6C0422C532C7801D8016D917C9130
S11310B080E090E00E949A149B01AC016F966CADA5
S11310C07DAD8EAD9FAD6F970E9409130E9464148D
S11310D09B01772324F422273327261B370BB901DE
S11310E0330F880B990B0E949C144B015C01F70190
S11310F06281738180E090E00E949A149B01AC01AC
S1131100A3966CAD7DAD8EAD9FADA3970E940913E0
S11311100E9464149B01772324F422273327261B7F
S1131120370BB901330F880B990B0E949C146B0188
S11311307C01A5019401C501B4010E94BF15299643
S11311406CAF7DAF8EAF9FAF2997A5019401C50108
S1131150B4010E94BF154B015C01A7019601C701B0
S1131160B6010E94BF159B01AC01C501B4010E94E8
S11311700A130E943A166B017C01D3016D937D938F
S11311808D939D933D0162962FAD629766963FAD18
S113119066976A964FAD6A976B965FAD6B970E94A0
S11311A0B2151816F4F42A964FAE2A972B965FAE12
S11311B02B97A896BFADA8972E96BFAF2E97A9964A
S11311C0EFADA9972F96EFAF2F976296CFAE6297A8
S11311D06696DFAE66976A96EFAE6A976B96FFAE39
S11311E06B97FFEF2F1A3F0A0A5F1F4F24E0221666
S11311F0310409F057CFA5968EAD9FADA597019602
S1131200A5969FAF8EAFA597A796AEADBFADA79796
S11312101696A796BFAFAEAFA797AB96EEADFFAD50
S1131220AB977096AB96FFAFEEAFAB970497D1F147
S1131230A4960FADA497A5961FADA597A796AEAD9E
S1131240BFADA7976D917C9180E090E00E949A14C5
S11312506F966CAF7DAF8EAF9FAF6F97A796EEADD5
S1131260FFADA7976281738180E090E00E949A1499
S1131270A3966CAF7DAF8EAF9FAFA397AB966EACCA
S11312807FACAB97AE964FACAE97AF965FACAF97D3
S1131290212C312CA8960FAFA897A9961FAFA99718
S11312A0820100CF80E090E020E030E02B964EAD4C
S11312B05FAD2B972F966EAD7FAD2F97681779078B
S11312C081F04817590769F0F901EE0FFF1FA1E4F7
S11312D0B0E0AC0FBD1FEA0FFB1F918380832F5F2B
S11312E03F4F01968430910549F723960EAD1FAD0B
S11312F023972596EEACFFAC25972F968EAD9FAD28
S11313002F97880F991F880F991FDC01A00FB11F19
S1131310AA0FBB1FAA0FBB1FE1E0F0E0EC0FFD1FFB
S1131320AE0FBF1FFC01EE0DFF1DEE0FFF1FEE0FF2
S1131330FF1F21E030E02C0F3D1FE20FF31F20813F
S11313403181428153816D917D918D919C910E9457
S11313500A134B015C012B96AEADBFAD2B97AA0FC0
S1131360BB1FAA0FBB1FFD01E00FF11FEE0FFF1FF4
S1131370EE0FFF1F81E090E08C0F9D1FE80FF91F17
S1131380AE0DBF1DAA0FBB1FAA0FBB1FA80FB91F0D
S11313902D913D914D915C91608171818281938108
S11313A00E940A139B01AC01C501B4010E94E81319
S11313B088238CF42F96AEADBFAD2F97B093680100
S11313C0A09367012B96EEADFFAD2B97F0936601CA
S11313D0E093650110C02B962EAD3FAD2B97309353
S11313E06801209367012F968EAD9FAD2F97909340
S11313F0660180936501E0906701F09068010091B7
S1131400650110916601F701EE0FFF1FEE0FFF1F3C
S1131410E00FF11FEE0FFF1FEE0FFF1FEC0FFD1F7C
S1131420218132814381548160E070E088EE91E44F
S11314300E94F21329966CAF7DAF8EAF9FAF2997B0
S11314406093800170938101809382019093830162
S1131450D701AA0FBB1FAE0DBF1DAA0FBB1FAD96B0
S1131460EEADFFADAD97AE0FBF1F12962D903C9021
S11314701397F801EE0FFF1FE00FF11FEE0FFF1F90
S1131480AD962EAD3FADAD97E20FF31FE280F38032
S11314900D911C91C080D180B10180E090E00E9448
S11314A09A144B015C01B70180E090E00E949A1409
S11314B09B01AC01C501B4010E9409134B015C01FD
S11314C0B80180E090E00E949A142B013C01B6011F
S11314D080E090E00E949A149B01AC01C301B20128
S11314E00E940913A50194010E9489134B015C0118
S11314F0B601600F711F80E090E00E949A1420E012
S113150030E040E05FE30E94BF1520E030E84CEF9C
S113151053E40E9409132B013C0177FA709477F885
S11315207094B701620D731D80E090E00E949A14DC
S113153020E030E040E05FE30E94BF1520E030E0AF
S113154049EB53E40E9409136B017C01F7FAF09410
S1131550F7F8F094C501B4010E94ED132D966CAF19
S11315607DAF8EAF9FAF2D97C501B4010E942C169D
S113157061966CAF7DAF8EAF9FAF61972AE037ED78
S113158043EA5CE360918401709185018091860156
S1131590909187010E94BF1565966CAF7DAF8EAFA9
S11315A09FAF659728E431EE4AE75FE3C501B401D4
S11315B00E94BF159B01AC0165966CAD7DAD8EADEF
S11315C09FAD65970E940A1365966CAF7DAF8EAF91
S11315D09FAF659708E811E02AE037ED43EA5CE342
S11315E0D8016D917D918D919C910E94BF15699652
S11315F06CAF7DAF8EAF9FAF69972D962CAD3DAD8F
S11316004EAD5FAD2D97C301B2010E94BF154B01D2
S11316105C0161962CAD3DAD4EAD5FAD6197C701E8
S1131620B6010E94BF159B01AC01C501B4010E9423
S1131630091328E431EE4AE75FE30E94BF159B01DA
S1131640AC0169966CAD7DAD8EAD9FAD69970E947E
S11316500A134B015C01F8016083718382839383D5
S11316602AE037ED43EA5CE36481758186819781E2
S11316700E94BF1569966CAF7DAF8EAF9FAF69971F
S113168061962CAD3DAD4EAD5FAD6197C301B20126
S11316900E94BF152B013C012D962CAD3DAD4EADE6
S11316A05FAD2D97C701B6010E94BF159B01AC0128
S11316B0C301B2010E940A1328E431EE4AE75FE352
S11316C00E94BF159B01AC0169966CAD7DAD8EADDA
S11316D09FAD69970E940A136B017C01D80114968F
S11316E06D937D938D939C93179729EF3FE049E485
S11316F050E465966CAD7DAD8EAD9FAD65970E944F
S113170009132B013C0129EF3FE049E450EC0E940E
S1131710E81388234CF04092840150928501609232
S113172086017092870110C029EF3FE049EC50E434
S1131730C301B2010E940A1360938401709385016E
S1131740809386019093870104E711E0A501940139
S113175029966CAD7DAD8EAD9FAD29970E94BF15C6
S1131760F8016083718382839383A701960129968C
S11317706CAD7DAD8EAD9FAD29970E94BF15D8018C
S113178014966D937D938D939C9317978091840108
S113179090918501A0918601B0918701F80180871D
S11317A09187A287B387C259DF4F0FB6F894DEBF83
S11317B00FBECDBFDF91CF911F910F91FF90EF909E
S11317C0DF90CF90BF90AF909F908F907F906F905D
S11317D05F904F903F902F900895CF92DF92EF92B9
S11317E0FF920F931F93CF93DF93C0908001D0900B
S11317F08101E0908201F0908301C4E7D1E008E820
S113180011E0A7019601F8016081718182819381C1
S11318100E94BF15688379838A839B83F80124819E
S1131820358146815781C701B6010E94BF156C837B
S11318307D838E839F838091840190918501A09103
S11318408601B091870188879987AA87BB87DF9132
S1131850CF911F910F91FF90EF90DF90CF9008955B
S1131860CF93DF93EC010E94C50720917101309161
S1131870720122303105A9F03CF421153105B9F08B
S11318802130310589F016C02330310539F0243078
S1131890310581F4CE010E9409080EC00E94ED0BAF
S11318A00BC00E94ED0B08C00E94ED0B05C00E9406
S11318B0ED0B02C00E94ED0BDF91CF910895CF9301
S11318C0DF93EC0180917301811102C00E94BD0776
S11318D0CE010E94300C84E791E00E94C703DF919F
S11318E0CF9108952F923F924F925F926F927F9281
S11318F08F929F92AF92BF92CF92DF92EF92FF921C
S11319000F931F93CF93DF93CDB7DEB764970FB6D2
S1131910F894DEBF0FBECDBF84E1EDE0F1E0DE015F
S1131920119601900D928A95E1F70E941E0108E933
S113193011E0F80160837183828393830E944A01DA
S1131940F80164837583868397830E947601F80186
S113195060877187828793870E94A201F801648758
S11319607587868797870E94CE01F801608B718BFB
S1131970828B938B78010F2EFCEACF2EF1E0DF2EC1
S1131980F02D20E030E048EC52E4F80160817181F0
S1131990828193810E94E81388232CF4F801108239
S11319A01182128213820C5F1F4F0C151D0549F71B
S11319B0CE0101961C01412C512C320100E010E0B3
S11319C0F70181909190A190B1907F01F101219153
S11319D03191419151911F01C501B4010E94BF157C
S11319E09B01AC01C301B2010E940A132B013C010B
S11319F0B801110F880B990B0E949C149B01AC0138
S1131A00C501B4010E940A130E9464148B01EC14F2
S1131A10FD04B1F6072E000C880B990B0E949C1450
S1131A209B01AC01C301B2010E94F2136093AC01AB
S1131A307093AD018093AE019093AF01053611050B
S1131A400CF446C0C090A001D090A101E090A20186
S1131A50F090A30120E030E04AE754E4C701B60166
S1131A600E94B21518167CF520E030E84CE754E4E7
S1131A70C701B6010E94E81388232CF520E030EC5E
S1131A8043E754E460919C0170919D0180919E0113
S1131A9090919F010E94B215181684F020E030EC5A
S1131AA043E754E46091A4017091A5018091A601DB
S1131AB09091A7010E94B21518162CF482E090E0D0
S1131AC00E94C10309C081E090E00E94C10304C0E8
S1131AD080E090E00E94C10364960FB6F894DEBFE4
S1131AE00FBECDBFDF91CF911F910F91FF90EF906B
S1131AF0DF90CF90BF90AF909F908F907F906F902A
S1131B005F904F903F902F9008952F9A87EA91E627
S1131B100197F1F700C000002F9808954AE050E0C3
S1131B20EBE0F1E061E070E09BB19B01008002C05A
S1131B30220F331F0A94E2F7822F809589238BB9F1
S1131B402FE382E49FE0215080409040E1F700C001
S1131B5000002BB1CB01008002C0880F991F0A94AA
S1131B60E2F7822B8BB92FE382E49FE0215080407F
S1131B709040E1F700C0000041505109A9F60895D2
S1131B8087BD85B5846085BD85B58D7F85BD85B5EB
S1131B90816085BD85B5877F85BD84B5826084BD40
S1131BA084B58E7F84BD0895882339F0EEE6F0E095
S1131BB080818260808378940895EEE6F0E08081ED
S1131BC08D7F80830895E1E6F0E080E880831082D1
S1131BD06E9A769A6A9A729A24982C9A25982D9AD3
S1131BE01C9906C083E090E090930C0180930B0154
S1131BF01D990CC08DE89FEF90930A018093090111
S1131C0086E490E0909308018093070154985C9ACD
S1131C104AB1EBE0F1E081E090E09C01008002C079
S1131C20220F331F0A94E2F7242B2AB92BB1008028
S1131C3002C0880F991F0A94E2F7822B8BB9209A6D
S1131C40219A229A239A279A60E070E080E09FE329
S1131C500E94D1030E9402104AE069E381E00E94DD
S1131C6013100E9455118AEF90E00E94C00D81E08C
S1131C700E94D40D0E94070178940895CF93DF93B6
S1131C80CDB7DEB72A970FB6F894DEBF0FBECDBF2F
S1131C900E94E30D6E9A76986A9A72986894EE247C
S1131CA0E2F86894FF24F6F80BE011E080919401C7
S1131CB090919501892B81F080EB91E00E9476123E
S1131CC080EB91E00E945F0C6A9A8EB18E258EB9EA
S1131CD010929501109294010E94720C80919601C9
S1131CE090919701892B09F44EC06AE08FEC91E042
S1131CF00E946910E091CF01E093CE014E2F50E095
S1131D00FA01E05AF109EA30F10520F4EA5AFF4FEA
S1131D100C94A71686E090E00E94BB032CC086E0DA
S1131D2090E00E94BB0327C081E090E00E94BB03C7
S1131D3022C080E090E00E94BB031DC080E090E0E0
S1131D400E94BB0318C080E090E00E94BB0313C054
S1131D5080E090E00E94BB030EC080E090E00E940F
S1131D60BB0309C087E090E00E94BB0304C081E08C
S1131D7090E00E94BB0310929701109296016E9A14
S1131D808EB18F258EB90E94BE0390E088309105F4
S1131D9028F4FC01E05AFF4F0C94A71680E090E071
S1131DA00E94BB0383CF0E94B80780CF0E94CC035C
S1131DB06C019093CD018093CC01A0900701B09069
S1131DC00801B5010B2C000C880B990B0E949C1484
S1131DD09B01AC01F60160817181828193810E9433
S1131DE009139F7720E030E040EA50E40E94E813B2
S1131DF088231CF56091900170919101072E000CCD
S1131E00880B990B0E949C149B01AC01F601648120
S1131E107581868197810E9409139F7720E030E0C5
S1131E2040EA50E40E94E81388233CF40E94B80777
S1131E3082E090E00E94BB0339CF609190017091E1
S1131E409101C5010E94150531CF0E94C403813060
S1131E5029F483E090E00E94BB0328CF0E94FE0493
S1131E6025CF0E94C4038230A9F484E090E00E944C
S1131E70BB038AE0E1E2F1E0DE01119601900D92EC
S1131E808A95E1F74AE0BE016F5F7F4F8F2D0E9474
S1131E90CD1023C00E94C403811115C082E090E0DC
S1131EA00E94BB038AE0E1E2F1E0DE0111960190B9
S1131EB00D928A95E1F74AE0BE016F5F7F4F8F2D47
S1131EC00E94CD100AC06091AC017091AD01809167
S1131ED0AE019091AF010E946E062BB181E090E0BB
S1131EE0F801008002C0880F991F0A94E2F7822B40
S1131EF08BB9DCCE0E94C4038230A9F083E090E069
S1131F000E94BB038AE0EBE2F1E0DE01119601904E
S1131F100D928A95E1F74AE0BE016F5F7F4F88E337
S1131F200E94CD101AC0609192017091930180912A
S1131F30090190910A010E9415058AE0E5E3F1E0A8
S1131F40DE01119601900D928A95E1F74AE0BE01F7
S1131F506F5F7F4F88E30E94CD102BB181E090E04A
S1131F60F801008002C0880F991F0A94E2F7809557
S1131F7082238BB99BCE0E94850D82E090E00E9463
S1131F80BB0394CE0E948E0D80E090E00E94BB03C0
S1131F908DCE60919201709193018091090190918D
S1131FA00A010E94150582CE1F920F920FB60F925E
S1131FB011248F939F9381E090E0909397018093F5
S1131FC096019F918F910F900FBE0F901F901895BF
S1131FD01F920F920FB60F9211248F939F938091AB
S1131FE0940190919501892B31F481E090E09093D4
S1131FF09501809394019F918F910F900FBE0F9044
S11320001F901895589A599A5A9A8CE08093B80060
S1132010E9E6F0E080818062808380818F7E808326
S1132020EA9A789408951F93CF93DF93182FD62FAD
S1132030C42F0E94021094EA9093BC00ECEBF0E0F1
S113204090819923ECF790E59093BB0094E89093EA
S1132050BC00ECEBF0E090819923ECF79091B9008F
S1132060987F903229F484E98093BC0080E02DC0ED
S113207081E08093BB0084E88093BC00ECEBF0E04B
S113208090819923ECF71093BB0084E88093BC0003
S1132090ECEBF0E080818823ECF7D093BB0084E87C
S11320A08093BC00ECEBF0E080818823ECF7C093D4
S11320B0BB0084E88093BC00ECEBF0E080818823D3
S11320C0ECF784E98093BC0081E0DF91CF911F910C
S11320D00895CF93DF939C0184EA8093BC00ECEBDA
S11320E0F0E090819923ECF781E58093BB0084E8CC
S11320F08093BC00ECEBF0E090819923ECF78091A5
S1132100B900887F883429F484E98093BC0080E096
S113211041C084EC8093BC00ECEBF0E09081992307
S1132120ECF74091BB00461309C0842F90E001975F
S11321301816190644F040E050E01AC084E9809370
S1132140BC0080E027C0D90150E041505109B901D9
S1132150640F751FECEBF0E084ECCBEBD0E08083F4
S113216090819923ECF798819D93A617B707B9F747
S113217084E88093BC00ECEBF0E090819923ECF7C9
S11321808091BB00F901E40FF51F808384E98093FB
S1132190BC0081E0DF91CF910895CF93DF93F89451
S11321A094EA9093BC00ECEBF0E090819923ECF777
S11321B090E59093BB0094E89093BC00ECEBF0E0C6
S11321C090819923ECF79091B900987F903231F483
S11321D084E98093BC00789480E02DC093E09093D0
S11321E0BB0094E89093BC00ECEBF0E09081992361
S11321F0ECF78093BB0084E88093BC00ECEBF0E048
S113220080818823ECF7442389F0DB01640F711D7E
S1132210CBEBD0E0ECEBF0E094E88D9188839083F5
S113222080818823ECF7A617B707B9F784E9809370
S1132230BC00789481E0DF91CF91089520E030E0F4
S1132240ECEBF0E08081882334F02F5F3F4F293E90
S113225083E03807B9F781E0283E334009F480E091
S113226008958093BB0084E88093BC000E941E11F3
S1132270882319F08091B900887F0895CF93C82FDF
S113228094EA9093BC000E941E11882361F08C2F65
S1132290880F0E943111803229F484E98093BC00B4
S11322A080E001C081E0CF9108950E94021088E58A
S11322B00E943E11882309F4CDC080E30E943111AD
S11322C0882309F4C9C081E00E943111882309F4EC
S11322D0C5C084E98093BC0083EC99E00197F1F7D1
S11322E000C0000088E50E943E11882309F4B8C0AC
S11322F080E00E943111882309F4B4C080E00E9478
S11323003111882309F4B0C080E00E943111882380
S113231009F4ACC080E00E943111882309F4A8C0FC
S113232080E00E943111882309F4A4C080E00E9457
S11323303111882309F4A0C080E00E943111882360
S113234009F49CC080E90E943111882309F498C0E3
S113235084E98093BC0083EC99E00197F1F700C015
S1132360000088E50E943E11882309F48BC087E0B1
S11323700E943111882309F487C080E00E94311142
S1132380882309F483C081E40E943111882309F46D
S11323907FC084E98093BC0083EC99E00197F1F756
S11323A000C0000088E50E943E11882309F472C031
S11323B08AE10E943111882309F46EC080E40E94EE
S11323C03111882309F46AC080E00E943111882306
S11323D009F466C084E98093BC0083EC99E001971A
S11323E0F1F700C0000088E50E943E11882309F43B
S11323F059C083E30E943111882309F455C083E056
S11324000E943111882309F451C084E98093BC00EF
S113241083EC99E00197F1F700C0000088E50E9481
S11324203E11882309F444C080E30E9431118823BB
S113243009F440C088E00E9431118823E9F184E95D
S11324408093BC0083EC99E00197F1F700C0000091
S113245081E0089580E0089580E0089580E0089583
S113246080E0089580E0089580E0089580E0089574
S113247080E0089580E0089580E0089580E0089564
S113248080E0089580E0089580E0089580E0089554
S113249080E0089580E0089580E0089580E0089544
S11324A080E0089580E0089580E0089580E0089534
S11324B080E0089580E0089580E00895CF93C82FC8
S11324C084EA8093BC000E941E11882369F08C2F3B
S11324D0880F8F5F0E943111883429F484E9809336
S11324E0BC0080E001C081E0CF9108950F931F9359
S11324F0CF93DF93CDB7DEB760970FB6F894DEBF06
S11325000FBECDBF8C01FE01319680E1DF011D922B
S11325108A95E9F788E50E943E11882309F469C089
S113252086E30E943111882309F465C084E980930D
S1132530BC00B8E0BA95F1F7000088E50E945E128D
S1132540882309F45AC0BE016F5F7F4FAE01405F1C
S11325505F4FECEBF0E084EC2BEB30E08083908178
S11325609923ECF7D9019C91DB019D93BD01A4173C
S1132570B507A1F784E88093BC00ECEBF0E0808120
S11325808823ECF78091BB00888B84E98093BC009E
S1132590BE016C5F7F4FF801085E1F4FDB012C9179
S11325A0322F3073CB010297DC018C9190E0B0E1C3
S11325B03B9F800D911D112491838083422F407C89
S11325C050E0440F551F440F551FCB010197DC0108
S11325D08C91480F511D538342832F7030E0358313
S11325E024836D5F7F4F3696E017F107B9F681E0DB
S11325F005C080E003C080E001C080E060960FB6B3
S1132600F894DEBF0FBECDBFDF91CF911F910F9124
S113261008955058BB27AA270E9421130C946415CF
S11326200E942B1538F00E94321520F039F49F3F98
S113263019F426F40C9401150EF4E095E7FB0C94C0
S1132640FB14E92F0E94891558F3BA176207730720
S11326508407950720F079F4A6F50C94AB150EF4D5
S1132660E0950B2EBA2FA02D0B01B90190010C019E
S1132670CA01A0011124FF27591B99F0593F50F4B6
S1132680503E68F11A16F040A22F232F342F44270E
S1132690585FF3CF469537952795A795F040539506
S11326A0C9F77EF41F16BA0B620B730B840BBAF0D6
S11326B09150A1F0FF0FBB1F661F771F881FC2F741
S11326C00EC0BA0F621F731F841F48F48795779555
S11326D06795B795F7959E3F08F0B0CF9395880F0F
S11326E008F09927EE0F9795879508950E942B156A
S11326F060F080E891E009F49EEF0E94321528F022
S113270040E851E071F45EEF0CC00C9401150C9498
S1132710AB15E92FE0780E94891540F3092E052AAC
S1132720B1F3261737074807590738F00E2E07F874
S1132730E02569F0E025E0640AC0EF6307F800943F
S113274007FADB01B9019D01DC01CA01AD01EF9378
S11327500E9409140E9464150E94B9135F915523C5
S113276039F02BED3FE049E450FD49EC0C940A1399
S11327700895DF93DD27B92FBF7740E85FE316168E
S1132780170648075B0718F4D92F0E94B7159F93C3
S11327908F937F936F930E947A16E0EDF0E00E948E
S11327A004150E9464152F913F914F915F910E94EF
S11327B0D215DD2351F09058A2EA2AED3FE049EC0E
S11327C05FE3D0785D270E942113DF910C94641598
S11327D00E94D71408F481E008950E943B15E39504
S11327E00C9475150E9406140C9464150E943215FD
S11327F058F00E942B1540F029F45F3F29F00C9407
S1132800FB1451110C94AC150C9401150E948915FC
S113281068F39923B1F3552391F3951B550BBB270B
S1132820AA2762177307840738F09F5F5F4F220F50
S1132830331F441FAA1FA9F335D00E2E3AF0E0E847
S113284032D091505040E695001CCAF72BD0FE2F91
S113285029D0660F771F881FBB1F26173707480725
S1132860AB07B0E809F0BB0B802DBF01FF279358DD
S11328705F4F3AF09E3F510578F00C94FB140C9492
S1132880AC155F3FE4F3983ED4F38695779567954E
S1132890B795F7959F5FC9F7880F911D9695879512
S11328A097F90895E1E0660F771F881FBB1F621731
S11328B073078407BA0720F0621B730B840BBA0BEF
S11328C0EE1F88F7E09508950E946B146894B11187
S11328D00C94AC1508950E94911588F09F5798F0B8
S11328E0B92F9927B751B0F0E1F0660F771F881F11
S11328F0991F1AF0BA95C9F714C0B13091F00E942B
S1132900AB15B1E008950C94AB15672F782F882789
S1132910B85F39F0B93FCCF3869577956795B39551
S1132920D9F73EF490958095709561957F4F8F4FC0
S11329309F4F0895E89409C097FB3EF490958095C5
S1132940709561957F4F8F4F9F4F9923A9F0F92F71
S113295096E9BB279395F695879577956795B795EF
S1132960F111F8CFFAF4BB0F11F460FF1BC06F5FD5
S11329707F4F8F4F9F4F16C0882311F096E911C0E7
S1132980772321F09EE8872F762F05C0662371F008
S113299096E8862F70E060E02AF09A95660F771F1C
S11329A0881FDAF7880F9695879597F90895990FF8
S11329B00008550FAA0BE0E8FEEF16161706E80705
S11329C0F907C0F012161306E407F50798F0621B26
S11329D0730B840B950B39F40A2661F0232B242BFB
S11329E0252B21F408950A2609F4A140A6958FEF1A
S11329F0811D811D089597F99F6780E870E060E06C
S1132A0008959FEF80EC0895DF93CF931F930F9366
S1132A10FF92EF92DF927B018C01689406C0DA2E5C
S1132A20EF010E94D215FE01E894A59125913591FC
S1132A3045915591A6F3EF010E942113FE019701E0
S1132A40A801DA9469F7DF90EF90FF900F911F913E
S1132A50CF91DF91089500240A94161617061806DC
S1132A600906089500240A9412161306140605068E
S1132A7008950C9401150E949115D8F3E894E0E0B0
S1132A80BB279F57F0F02AED3FE049EC06C0EE0F5C
S1132A90BB0F661F771F881F28F0B23A62077307BF
S1132AA0840728F0B25A620B730B840BE3959A9552
S1132AB072F7803830F49A95BB0F661F771F881F12
S1132AC0D2F790480C948016092E0394000C11F44C
S1132AD0882352F0BB0F40F4BF2B11F460FF04C0F5
S1132AE06F5F7F4F8F4F9F4F0895EF93E0FF07C0B5
S1132AF0A2EA2AED3FE049EC5FEB0E9421130E9419
S1132B0064150F90039401FC9058EDEFF0E00C94E1
S1132B10931657FD9058440F551F59F05F3F71F0BD
S1132B204795880F97FB991F61F09F3F79F0879530
S1132B300895121613061406551FF2CF4695F1DFB9
S1132B4008C0161617061806991FF1CF8695710549
S1132B50610508940895E894BB2766277727CB017D
S1132B6097F908950E94D71408F48FEF08959B01F4
S1132B70AC0160E070E080E89FE30C94F2130E94E3
S1132B80D2150C9464150E942B1538F00E9432154E
S1132B9020F0952311F00C94FB140C9401151124CE
S1132BA00C94AC150E94891570F3959FC1F3950F91
S1132BB050E0551F629FF001729FBB27F00DB11DBD
S1132BC0639FAA27F00DB11DAA1F649F6627B00D4D
S1132BD0A11D661F829F2227B00DA11D621F739F36
S1132BE0B00DA11D621F839FA00D611D221F749F44
S1132BF03327A00D611D231F849F600D211D822F8B
S1132C00762F6A2F11249F5750409AF0F1F08823B1
S1132C104AF0EE0FFF1FBB1F661F771F881F9150DE
S1132C205040A9F79E3F510580F00C94FB140C947E
S1132C30AC155F3FE4F3983ED4F38695779567959A
S1132C40B795F795E7959F5FC1F7FE2B880F911D08
S1132C509695879597F908959F930E943B150F9039
S1132C6007FCEE5F0C94751519F416F40C94011519
S1132C700C947E160E949115B8F39923C9F3B6F308
S1132C809F57550B87FF0E948C160024A0E640EA4C
S1132C90900180585695979528F4805C660F771FAD
S1132CA0881F20F026173707480730F4621B730B80
S1132CB0840B202931294A2BA695179407942025A3
S1132CC031254A2758F7660F771F881F20F02617EB
S1132CD03707480730F4620B730B840B200D311D4A
S1132CE0411DA09581F7B901842F9158880F9695BD
S1132CF0879508959B01AC010C94BF159F3F31F05B
S1132D00915020F4879577956795B795880F911D15
S1132D109695879597F9089591505040660F771FBF
S1132D20881FD2F708959F938F937F936F93FF9398
S1132D30EF939B01AC010E94BF15EF91FF910E949C
S1132D4004152F913F914F915F910C94BF15EE0F95
S1112D50FF1F0590F491E02D0994F894FFCF35
S1132D5E00E10000000008BAFF73000500FBCB166B
S1132D6EC0F90F49BF00000000F90F493FFBCB1615
S1132D7E40A9A9A9A9A9A9A9A9A9A9A1A1A1A1A142
S1132D8EA1A1A1A1A1A8A8A8A8A8A8A8A8A8A8007C
S9030000FC
