S0100000526F626F636B65792E73726563D6
S11300000C94E5000C9402010C9402010C94990FD9
S11300100C9402010C9402010C9402010C94020150
S11300200C9402010C9402010C94F7010C94350217
S11300300C9402010C9402010C9402010C94020130
S11300400C9402010C9402010C9402010C94020120
S11300500C9402010C94AD0F0C9402010C94020157
S11300600C9402010C9402010C9402010C94020100
S11300700C9402010C9402010C9402010C940201F0
S11300800C9402010C9402010C9402010C940201E0
S11300900C9402010C9402010C9402010C940201D0
S11300A00C9402010C9402010C940201AC0EB10EEA
S11300B0B60EBB0EC00EA70EC50ECA0EE60EE90E96
S11300C0360F420F6A0F8B0F920F084AD73B3BCE75
S11300D0016E84BCBFFDC12F3D6C74319ABD568343
S11300E03DDA3D00C77F11BED9E4BB4C3E916BAAFB
S11300F0AABE000000803F05A84CCDB2D44EB9384A
S113010036A9020C50B9918688083CA6AAAA2ABE30
S1130110000000803F0000010000AD011200020059
S1130120006A01430003000066010401030904524C
S11301300112020309044A010603030904400108E9
S11301400803340031003000000006034D00320083
S1130150000012034A002E002000460069006500DA
S11301606E00650000000403090409024300020153
S113017000C032090400000102020100052400103D
S113018001052401010104240206052406000107D7
S113019005820310004009040100020A0000000760
S11301A0050302400000070584024000001201001C
S11301B00202000010C0167A0400010102030100CB
S11301C001C1120180360181360011241FBECFEF18
S11301D0DAE0DEBFCDBF11E0A0E0B1E0E6E4FCE28E
S11301E002C005900D92A432B107D9F721E0A4E230
S11301F0B1E001C01D92AB3BB207E1F70E94630E70
S11302000C9421160C940000ECE7F0E080818F77C9
S11302108083808180648083EAE7F0E08081846069
S1130220808380818260808380818160808380E894
S113023085BF85BF0895EAE7F0E080818F778083EA
S1130240AEE7B0E08C9181608C93ABE7B0E08C9129
S11302508F7D8C93ACE7B0E08C918B7F8C938C91E9
S11302608D7F8C938C918E7F8C938081806880832A
S1130270808180648083808184FFFDCF60917800D9
S11302807091790080E090E00E940E140895EAE7EE
S1130290F0E080818F778083AEE7B0E08C9182605C
S11302A08C93ABE7B0E08C918F7D8C93ACE7B0E09E
S11302B08C918B7F8C938C918D7F8C938C918160AE
S11302C08C93808180688083808180648083808136
S11302D084FFFDCF609178007091790080E090E018
S11302E00E940E140895EAE7F0E080818F778083FE
S11302F0AEE7B0E08C9180618C93ABE7B0E08C9179
S11303008F7D8C93ACE7B0E08C9184608C938C915E
S11303108D7F8C938C918E7F8C9380818068808379
S1130320808180648083808184FFFDCF6091780028
S11303307091790080E090E00E940E140895EAE73D
S1130340F0E080818F778083AEE7B0E08C918062AB
S11303508C93ABE7B0E08C918F7D8C93ACE7B0E0ED
S11303608C9184608C938C918D7F8C938C91816023
S11303708C93808180688083808180648083808185
S113038084FFFDCF609178007091790080E090E067
S11303900E940E140895EAE7F0E080818F7780834D
S11303A0AEE7B0E08C9180648C93ABE7B0E08C91C5
S11303B08F7D8C93ACE7B0E08C9184608C938C91AE
S11303C082608C938C918E7F8C93808180688083F3
S11303D0808180648083808184FFFDCF6091780078
S11303E07091790080E090E00E940E1408951F92AD
S11303F00F920FB60F9211248F939F93EF93FF9355
S1130400E1EEF0E08081108283FF11C01092E900D8
S113041091E09093EB001092EC0092E19093ED0048
S113042098E09093F000109226011092240182FF2C
S113043013C080912601882379F0809125018823B7
S113044059F0815080932501811106C084E0809386
S1130450E9008AE38093E800FF91EF919F918F91E7
S11304600F900FBE0F901F9018951F920F920FB60A
S11304700F9211240F931F932F933F934F935F93E6
S11304806F937F938F939F93AF93BF93CF93DF9398
S1130490EF93FF931092E9008091E80083FF4CC131
S11304A0E1EFF0E0608180812081908130E0392BA0
S11304B04081908150E0592B7081C08192EF9093DC
S11304C0E800863009F058C004C081E28093EB0054
S11304D03AC166E086E191E0FC01A591B4912A1746
S11304E03B0711F0079623C0FC013296A591B49105
S11304F04A175B0711F007961AC0FC013496459120
S11305005491FC0136962491872F90E09C2B8F3FC9
S1130510910519F010F08FEF90E0821708F4282F5E
S1130520A8EEB0E070E16EEFC1EFD0E003C061501F
S113053099F6CBCF8C91982F9570E1F382FD03C18E
S1130540322F213108F0372F332309F4F9C0FA018F
S1130550832F94919883815031968111FACF8FEF34
S1130560830F90E00196480F591F231B6C932111B0
S1130570E1CF3031F9F2E7C0853061F48EEF80933A
S1130580E800E8EEF0E0808180FFFDCF2068209352
S1130590E300D9C0893009F035C06111CDC0209382
S11305A0260110922401109225018EEF8093E80019
S11305B081E02FEB31E0C9EED0E0ABEEB0E00CEE21
S11305C010E06DEE70E08883A9014F5F5F4FF90181
S11305D094919C93992361F0FA014491F80140832A
S11305E0F901329694912D5F3F4FFB01908301C036
S11305F09A018F5F853039F7EAEEF0E08EE180836F
S11306001082A1C0883081F4603809F095C0E8EE0A
S1130610F0E0808180FFFDCF809126018093F1007E
S11306208EEF8093E8008FC08132B9F4613A09F00B
S113063083C0E8EEF0E0808180FFFDCFE0E0F1E0F0
S113064027E031E0A1EFB0E081918C93E217F3074A
S1130650D9F78EEF8093E80076C08032D1F461320E
S113066009F06AC0E8EEF0E0808182FFFDCFE0E0AF
S1130670F1E027E031E0A1EFB0E08C918193E21743
S1130680F307D9F7E8EEF0E08BEF80838EEF8083F9
S11306905AC0823271F4613209F04EC020932401B1
S11306A0E8EEF0E0808180FFFDCF8EEF8093E800DC
S11306B04AC081111AC0E8EEF0E0808180FFFDCFCE
S11306C0623851F4E9EEF0E040838091EB0085FB61
S11306D0882780F9108201C080E0E1EFF0E0808398
S11306E010828EEF8093E8002EC0982F9D7F91306A
S11306F019F5623009F5232BF9F44F779FEF940F26
S11307009430D0F49EEF9093E8004093E900833056
S113071021F481E28093EB0016C089E18093EB0021
S113072081E090E002C0880F991F4A95E2F7EAEE53
S1130730F0E08083108207C081E28093EB0003C065
S11307406C932111F7CEFF91EF91DF91CF91BF917F
S1130750AF919F918F917F916F915F914F913F9155
S11307602F911F910F910F900FBE0F901F9018950E
S11307708093AB0108958091AB0108958093AA0101
S113078008958091AA0108959093AD018093AC01DE
S113079008958091AC019091AD0108956093450155
S11307A07093460180934701909348010895CF9236
S11307B0DF92EF92FF926B017C010E94C903909338
S11307C0340180933301FC012085318542855385B2
S11307D0C701B6010E947D126B017C0126C020E096
S11307E030E0A901C701B6010E94261518167CF451
S11307F029EF3FE049EC50E4C701B6010E947D12A5
S1130800462F572F682F792F6A017B010EC029EFDD
S11308103FE049EC50E4C701B6010E947E12462F26
S1130820572F682F792F6A017B0129EF3FE049E4B4
S113083050E4C701B6019F770E94261518167CF272
S1130840C0923D01D0923E01E0923F01F0924001FE
S1130850FF90EF90DF90CF900895CF92DF92EF92C8
S1130860FF92CF93DF936B017C01EA0120E030E03B
S113087040E85FE30E942615181644F40F2EC12C9D
S1130880D12CF0E8EF2EFFE3FF2EF02D219719F481
S1130890289A299802C02898299A80E094E0909395
S11308A089008093880020E030E040E854E4C701E8
S11308B0B6010E9433150E94D81370938B00609385
S11308C08A008091310190913201892B31F5E1E860
S11308D0F0E080818B7F808380818260808380814F
S11308E08E7F808380818061808380818860808323
S11308F0E0E8F0E080818260808380818160808391
S113090080818062808380818F7E8083269A81E0CB
S113091090E09093320180933101DF91CF91FF9069
S1130920EF90DF90CF900895CF92DF92EF92FF92F5
S1130930CF93DF936B017C01EA0120E030E040E8D3
S11309405FE30E942615181644F40F2EC12CD12CF7
S1130950F0E8EF2EFFE3FF2EF02D219719F42A9AE9
S11309602B9802C02A982B9A80E094E090939700E9
S11309708093960020E030E040E854E4C701B601DB
S11309800E9433150E94D8137093990060939800C5
S113099080912F0190913001892B31F5E1E9F0E04C
S11309A080818B7F808380818260808380818E7F41
S11309B08083808180618083808188608083E0E996
S11309C0F0E080818260808380818E7F808380815B
S11309D08068808380818F7B80833E9A81E090E071
S11309E09093300180932F01DF91CF91FF90EF908E
S11309F0DF90CF9008950E94C903909334018093AF
S1130A00330141E050E06DEC7CEC8CE49EE30E9409
S1130A10940440E050E06DEC7CEC8CE49EE30E9496
S1130A202D0408954F925F926F927F928F929F92BE
S1130A30AF92BF92CF92DF92EF92FF920F931F93E8
S1130A40CF93DF937C018B010E94C903EC01909347
S1130A50340180933301B701FF0C880B990B0E947A
S1130A601014288139814A815B810E947D126B01B7
S1130A707C01B801110F880B990B0E9410142C8172
S1130A803D814E815F810E947D12A70196010E94E3
S1130A90FD120E94D703C0903D01D0903E01E0902A
S1130AA03F01F090400120E030E0A901C701B60108
S1130AB00E94331520912B0130912C0140912D017E
S1130AC050912E010E947E124B015C0160932B0118
S1130AD070932C0180932D0190932E01209141015C
S1130AE0309142014091430150914401C701B60144
S1130AF00E947D1220E030E0A9010E9433152B01F1
S1130B003C01C0924101D0924201E0924301F09233
S1130B10440120E030E040E05FE3C701B6010E94F9
S1130B203315A50194010E947E12A30192010E9433
S1130B307E124B015C01E894B7F820E030E040E815
S1130B405FE3C501B4010E942615181644F40F2E64
S1130B50812C912CF0E8AF2EFFE3BF2EF02D29EF6E
S1130B603FE049EC5FE3C701B6019F770E94261579
S1130B7018161CF520E030E0A901C701B6010E9457
S1130B80261518166CF441E050E0C501B4010E942A
S1130B902D0440E050E0C501B4010E949404C2C099
S1130BA040E050E0C501B4010E942D0441E050E052
S1130BB0C501B4010E949404B5C020E030E0A9014D
S1130BC0C701B6010E9426151816ECF4C090450121
S1130BD0D0904601E0904701F0904801A5019401AE
S1130BE0C701B6010E947E12062F172FD82FC92FD6
S1130BF0A5019401C701B6010E947D12D62EC72E0D
S1130C00F82EE92E3AC020E030E0A901C701B60170
S1130C100E945C138823ECF4C0904501D0904601F7
S1130C20E0904701F0904801A5019401C701B60185
S1130C300E947D12062F172FD82FC92FA7019601C6
S1130C40C501B4010E947E12D62EC72EF82EE92EBD
S1130C5014C02091450130914601409147015091C3
S1130C604801C501B4010E947E12062F172FD82F08
S1130C70C92FD62EC72EF82EE92E20E030E040E80A
S1130C805FE3602F712F8D2F9C2F0E94261518165D
S1130C9084F020E030E0A901602F712F8D2F9C2F6C
S1130CA00E945C1388234CF400E010E0D0E0C0E024
S1130CB004C000E010E0D0E8CFE320E030E040E8FA
S1130CC05FE36D2D7C2D8F2D9E2D0E942615181609
S1130CD084F020E030E0A9016D2D7C2D8F2D9E2D18
S1130CE00E945C13882374F4D12CC12CF12CE12CC8
S1130CF009C0D12CC12C6894FF24F7F80F2EFFE310
S1130D00EF2EF02D41E050E0602F712F8D2F9C2F9E
S1130D100E942D0441E050E06D2D7C2D8F2D9E2DE1
S1130D200E949404DF91CF911F910F91FF90EF9057
S1130D30DF90CF90BF90AF909F908F907F906F90F7
S1130D405F904F9008954F925F926F927F928F922F
S1130D509F92AF92BF92CF92DF92EF92FF920F9346
S1130D601F93CF93DF936B017C01609339017093E0
S1130D703A0180933B0190933C0120E030E0A901CB
S1130D800E943315209127013091280140912901B7
S1130D9050912A010E947E124B015C01609327014D
S1130DA0709328018093290190932A0120913501A1
S1130DB0309136014091370150913801C701B60195
S1130DC00E947D1220E030E0A9010E9433152B011E
S1130DD03C01C0923501D0923601E0923701F09285
S1130DE038012AE939E949E15FE3C701B6010E9404
S1130DF03315A50194010E947E12A30192010E9461
S1130E007E124B015C01E894B7F820E030E0A901C0
S1130E10C701B6010E9426151816ECF4C0904501CE
S1130E20D0904601E0904701F0904801A50194015B
S1130E30C701B6010E947E12062F172FD82FC92F83
S1130E40A5019401C701B6010E947D12D62EC72EBA
S1130E50F82EE92E3AC020E030E0A901C701B6011E
S1130E600E945C138823ECF4C0904501D0904601A5
S1130E70E0904701F0904801A5019401C701B60133
S1130E800E947D12062F172FD82FC92FA701960174
S1130E90C501B4010E947E12D62EC72EF82EE92E6B
S1130EA014C0209145013091460140914701509171
S1130EB04801C501B4010E947E12062F172FD82FB6
S1130EC0C92FD62EC72EF82EE92E20E030E040E8B8
S1130ED05FE3602F712F8D2F9C2F0E94261518160B
S1130EE084F020E030E0A901602F712F8D2F9C2F1A
S1130EF00E945C1388234CF400E010E0D0E0C0E0D2
S1130F0004C000E010E0D0E8CFE320E030E040E8A7
S1130F105FE36D2D7C2D8F2D9E2D0E9426151816B6
S1130F2084F020E030E0A9016D2D7C2D8F2D9E2DC5
S1130F300E945C13882374F4D12CC12CF12CE12C75
S1130F4009C0D12CC12C6894FF24F7F80F2EFFE3BD
S1130F50EF2EF02D41E050E0602F712F8D2F9C2F4C
S1130F600E942D0441E050E06D2D7C2D8F2D9E2D8F
S1130F700E949404DF91CF911F910F91FF90EF9005
S1130F80DF90CF90BF90AF909F908F907F906F90A5
S1130F905F904F900895269810923201109231017B
S1130FA008953E981092300110922F0108950E94E6
S1130FB0D1070E94CB0708950E94C910882319F015
S1130FC081E08093570108950F931F93CF93DF938C
S1130FD0FC01CDE4D1E0BC01685E7F4F01E010E08C
S1130FE0DE0144E050E0808191818F3F934041F4E1
S1130FF0828193818F3F934019F41983088302C03F
S1131000198218822D913C91119712968D919C9181
S11310101397820F931F14962D913C911597820F6D
S1131020931F16962D913C911797820F931F9A0147
S1131030281B390B36962296E617F707A1F630934C
S1131040560120935501DF91CF911F910F9108957F
S11310502F923F924F925F926F927F928F929F92C4
S1131060AF92BF92CF92DF92EF92FF920F931F93B2
S1131070CF93DF93CDB7DEB7CE56D1090FB6F89430
S1131080DEBF0FBECDBFAD969FAF8EAFAD979E01B5
S11310902F5F3F4FAB963FAF2EAFAB97A7969FAF57
S11310A08EAFA797612C712C62961FAE62976696DD
S11310B01FAE66976A961FAE6A976B961FAE6B97C4
S11310C0AC963FADAC97AE963FAFAE97AD968FADB5
S11310D0AD97AF968FAFAF97A5967FAE6EAEA5973F
S11310E0C6C0422C532C7801D8016D917C9180E0CC
S11310F090E00E940E149B01AC016F966CAD7DAD27
S11311008EAD9FAD6F970E947D120E94D8139B01F4
S1131110772324F422273327261B370BB901330FF7
S1131120880B990B0E9410144B015C01F70162813A
S1131130738180E090E00E940E149B01AC01A396A1
S11311406CAD7DAD8EAD9FADA3970E947D120E94C4
S1131150D8139B01772324F422273327261B370B2C
S1131160B901330F880B990B0E9410146B017C0199
S1131170A5019401C501B4010E94331529966CAFF1
S11311807DAF8EAF9FAF2997A5019401C501B4012E
S11311900E9433154B015C01A7019601C701B601FA
S11311A00E9433159B01AC01C501B4010E947E125B
S11311B00E94AE156B017C01D3016D937D938D93D9
S11311C09D933D0162962FAD629766963FAD6697FB
S11311D06A964FAD6A976B965FAD6B970E94261522
S11311E01816F4F42A964FAE2A972B965FAE2B97D7
S11311F0A896BFADA8972E96BFAF2E97A996EFAD30
S1131200A9972F96EFAF2F976296CFAE6297669607
S1131210DFAE66976A96EFAE6A976B96FFAE6B97F2
S1131220FFEF2F1A3F0A0A5F1F4F24E022163104F2
S113123009F057CFA5968EAD9FADA5970196A596BB
S11312409FAF8EAFA597A796AEADBFADA7971696E5
S1131250A796BFAFAEAFA797AB96EEADFFADAB977A
S11312607096AB96FFAFEEAFAB970497D1F1A4960F
S11312700FADA497A5961FADA597A796AEADBFAD2C
S1131280A7976D917C9180E090E00E940E146F9678
S11312906CAF7DAF8EAF9FAF6F97A796EEADFFADEE
S11312A0A7976281738180E090E00E940E14A39658
S11312B06CAF7DAF8EAF9FAFA397AB966EAC7FAC98
S11312C0AB97AE964FACAE97AF965FACAF97212C71
S11312D0312CA8960FAFA897A9961FAFA9978201A2
S11312E000CF80E090E020E030E02B964EAD5FAD83
S11312F02B972F966EAD7FAD2F976817790781F0E6
S11313004817590769F0F901EE0FFF1FA1E4B0E097
S1131310AC0FBD1FEA0FFB1F918380832F5F3F4FEC
S113132001968430910549F723960EAD1FAD23979E
S11313302596EEACFFAC25972F968EAD9FAD2F97DB
S1131340880F991F880F991FDC01A00FB11FAA0FE6
S1131350BB1FAA0FBB1FE1E0F0E0EC0FFD1FAE0FB7
S1131360BF1FFC01EE0DFF1DEE0FFF1FEE0FFF1F51
S113137021E030E02C0F3D1FE20FF31F208131816B
S1131380428153816D917D918D919C910E947E1239
S11313904B015C012B96AEADBFAD2B97AA0FBB1FC3
S11313A0AA0FBB1FFD01E00FF11FEE0FFF1FEE0F91
S11313B0FF1F81E090E08C0F9D1FE80FF91FAE0D19
S11313C0BF1DAA0FBB1FAA0FBB1FA80FB91F2D91CA
S11313D03D914D915C9160817181828193810E94E4
S11313E07E129B01AC01C501B4010E945C138823E9
S11313F08CF42F96AEADBFAD2F97B0934C01A09354
S11314004B012B96EEADFFAD2B97F0934A01E09381
S1131410490110C02B962EAD3FAD2B9730934C0154
S113142020934B012F968EAD9FAD2F9790934A0139
S113143080934901E0904B01F0904C0100914901E7
S113144010914A01F701EE0FFF1FEE0FFF1FE00F8F
S1131450F11FEE0FFF1FEE0FFF1FEC0FFD1F218189
S113146032814381548160E070E088EE91E40E940F
S1131470661329966CAF7DAF8EAF9FAF29976093AB
S11314806401709365018093660190936701D701AD
S1131490AA0FBB1FAE0DBF1DAA0FBB1FAD96EEADAD
S11314A0FFADAD97AE0FBF1F12962D903C901397D2
S11314B0F801EE0FFF1FE00FF11FEE0FFF1FAD96B7
S11314C02EAD3FADAD97E20FF31FE280F3800D9197
S11314D01C91C080D180B10180E090E00E940E1484
S11314E04B015C01B70180E090E00E940E149B0167
S11314F0AC01C501B4010E947D124B015C01B8012D
S113150080E090E00E940E142B013C01B60180E0C3
S113151090E00E940E149B01AC01C301B2010E9431
S11315207D12A50194010E94FD124B015C01B601DC
S1131530600F711F80E090E00E940E1420E030E004
S113154040E05FE30E94331520E030E84CEF53E4C1
S11315500E947D122B013C0177FA709477F8709405
S1131560B701620D731D80E090E00E940E1420E02C
S113157030E040E05FE30E94331520E030E049EBC7
S113158053E40E947D126B017C01F7FAF094F7F8A2
S1131590F094C501B4010E9461132D966CAF7DAF28
S11315A08EAF9FAF2D97C501B4010E94A01561961F
S11315B06CAF7DAF8EAF9FAF61972DEC3CEC4CE4EC
S11315C05DE3609168017091690180916A01909175
S11315D06B010E94331565966CAF7DAF8EAF9FAFE4
S11315E0659723E333E343E75FE3C501B4010E9456
S11315F033159B01AC0165966CAD7DAD8EAD9FAD91
S113160065970E947E1265966CAF7DAF8EAF9FAFDB
S113161065970CE611E02DEC3CEC4CE45DE3D8015D
S11316206D917D918D919C910E94331569966CAF5B
S11316307DAF8EAF9FAF69972D962CAD3DAD4EAD6E
S11316405FAD2D97C301B2010E9433154B015C01BC
S113165061962CAD3DAD4EAD5FAD6197C701B6014E
S11316600E9433159B01AC01C501B4010E947D1297
S113167023E333E343E75FE30E9433159B01AC01AB
S113168069966CAD7DAD8EAD9FAD69970E947E125B
S11316904B015C01F80160837183828393832DEC99
S11316A03CEC4CE45DE364817581868197810E9402
S11316B0331569966CAF7DAF8EAF9FAF6997619616
S11316C02CAD3DAD4EAD5FAD6197C301B2010E943B
S11316D033152B013C012D962CAD3DAD4EAD5FADC8
S11316E02D97C701B6010E9433159B01AC01C301BC
S11316F0B2010E947E1223E333E343E75FE30E94D7
S113170033159B01AC0169966CAD7DAD8EAD9FAD7B
S113171069970E947E126B017C01D80114966D9327
S11317207D938D939C93179729EF3FE049E450E410
S113173065966CAD7DAD8EAD9FAD65970E947D12B3
S11317402B013C0129EF3FE049E450EC0E945C137B
S113175088234CF0409268015092690160926A01BA
S113176070926B0110C029EF3FE049EC50E4C301D3
S1131770B2010E947E1260936801709369018093A4
S11317806A0190936B0108E511E0A5019401299683
S11317906CAD7DAD8EAD9FAD29970E943315F801D8
S11317A06083718382839383A701960129966CAD2C
S11317B07DAD8EAD9FAD29970E943315D801149647
S11317C06D937D938D939C9317978091680190916D
S11317D06901A0916A01B0916B01F801808791873A
S11317E0A287B387C259DF4F0FB6F894DEBF0FBE8E
S11317F0CDBFDF91CF911F910F91FF90EF90DF90BC
S1131800CF90BF90AF909F908F907F906F905F909C
S11318104F903F902F900895CF92DF92EF92FF92D6
S11318200F931F93CF93DF93C0906401D090650111
S1131830E0906601F0906701C8E5D1E00CE611E0A4
S1131840A7019601F80160817181828193810E94D0
S11318503315688379838A839B83F80124813581D6
S113186046815781C701B6010E9433156C837D837D
S11318708E839F838091680190916901A0916A0190
S1131880B0916B0188879987AA87BB87DF91CF9135
S11318901F910F91FF90EF90DF90CF900895CF9319
S11318A0DF93EC010E94E407209155013091560129
S11318B022303105A9F03CF421153105B9F021306D
S11318C0310589F016C02330310539F02430310553
S11318D081F4CE010E9428080EC00E940C0C0BC09B
S11318E00E940C0C08C00E940C0C05C00E940C0C39
S11318F002C00E940C0CDF91CF910895CF93DF9327
S1131900EC0180915701811102C00E94DC07CE01D5
S11319100E944F0C88E591E00E94C403DF91CF91AF
S113192008952F923F924F925F926F927F928F927F
S11319309F92AF92BF92CF92DF92EF92FF920F935A
S11319401F93CF93DF93CDB7DEB764970FB6F894A8
S1131950DEBF0FBECDBF84E1EFE0F1E0DE01119602
S113196001900D928A95E1F70E941B010AE711E0AC
S1131970F80160837183828393830E944701F80195
S113198064837583868397830E947301F80160875B
S11319907187828793870E949F01F8016487758706
S11319A0868797870E94CB01F801608B718B828BAD
S11319B0938B78010F2EFEE8CF2EF1E0DF2EF02D71
S11319C020E030E048E453E4F801608171818281D1
S11319D093810E945C1388232CF4F80110821182F5
S11319E0128213820C5F1F4F0C151D0549F7CE019F
S11319F001961C01412C512C320100E010E0F7014A
S1131A0081909190A190B1907F01F1012191319148
S1131A10419151911F01C501B4010E9433159B01ED
S1131A20AC01C301B2010E947E122B013C01B8013A
S1131A30110F880B990B0E9410149B01AC01C50176
S1131A40B4010E947E120E94D8138B01EC14FD0491
S1131A50B1F6072E000C880B990B0E9410149B0101
S1131A60AC01C301B2010E94661360938E017093AE
S1131A708F018093900190939101093C11050CF41E
S1131A8046C0C0908201D0908301E0908401F09020
S1131A90850120E030EC48E754E4C701B6010E9418
S1131AA0261518167CF520E030E84CE754E4C7010D
S1131AB0B6010E945C1388232CF520E030E847E748
S1131AC054E460917E0170917F0180918001909136
S1131AD081010E942615181684F020E030E847E7BB
S1131AE054E46091860170918701809188019091FE
S1131AF089010E94261518162CF482E090E00E94B9
S1131B00BE0309C081E090E00E94BE0304C080E0EF
S1131B1090E00E94BE0364960FB6F894DEBF0FBE39
S1131B20CDBFDF91CF911F910F91FF90EF90DF9088
S1131B30CF90BF90AF909F908F907F906F905F9069
S1131B404F903F902F9008952F9A87EA91E601973E
S1131B50F1F700C000002F9808954AE050E0EDE04E
S1131B60F1E061E070E09BB19B01008002C0220FB4
S1131B70331F0A94E2F7822F809589238BB92FE3D0
S1131B8082E49FE0215080409040E1F700C00000D3
S1131B902BB1CB01008002C0880F991F0A94E2F791
S1131BA0822B8BB92FE382E49FE021508040904048
S1131BB0E1F700C0000041505109A9F6089587BD1E
S1131BC085B5846085BD85B58D7F85BD85B581600E
S1131BD085BD85B5877F85BD84B5826084BD84B5A8
S1131BE08E7F84BD0895882339F0EEE6F0E080818D
S1131BF08260808378940895EEE6F0E080818D7FA2
S1131C0080830895E1E6F0E080E8808310826E9A94
S1131C10769A6A9A729A24982C9A25982D9A1C99E5
S1131C2006C083E090E090930E0180930D011D990E
S1131C3012C083E790E090930C0180930B018FE036
S1131C4090E090930A01809309018AEB9FEF9093AF
S1131C5008018093070154985C9A4AB1EDE0F1E0E1
S1131C6081E090E09C01008002C0220F331F0A949F
S1131C70E2F7242B2AB92BB1008002C0880F991FE8
S1131C800A94E2F7822B8BB9209A219A229A239AFA
S1131C90279A60E070E080E09FE30E94CE030E94F8
S1131CA0C70F4AE069E381E00E94D80F0E94C9107F
S1131CB08AEF90E00E94DF0D81E00E94F30D0E9404
S1131CC00401789408950E94020E6E9A76986A9A96
S1131CD072986894EE24E2F86894FF24F6F80DE014
S1131CE011E0C1E0D0E08091760190917701892BD9
S1131CF081F082E991E00E94EA1182E991E00E9478
S1131D007E0C6A9A8EB18E258EB91092770110924C
S1131D1076010E94910C8091780190917901892B30
S1131D2009F444C06AE081EB91E00E942E10E09136
S1131D30B101E093B0018E2F90E0FC01E05AF1096B
S1131D40E830F10520F4EA5AFF4F0C941B1686E0A4
S1131D5090E00E94B80322C086E090E00E94B8039D
S1131D601DC082E090E00E94B80318C080E090E0BB
S1131D700E94B80313C080E090E00E94B8030EC034
S1131D8080E090E00E94B80309C080E090E00E94E7
S1131D90B80304C080E090E00E94B8031092790177
S1131DA0109278016E9A8EB18F258EB90E94BB0372
S1131DB090E08730910528F4FC01E25AFF4F0C941F
S1131DC01B1680E090E00E94B8038DCF0E94D707D5
S1131DD08ACF0E94C9036C019093AF018093AE0136
S1131DE0A0900701B0900801B5010B2C000C880BE2
S1131DF0990B0E9410149B01AC01F6016081718162
S1131E00828193810E947D129F7720E030E040E23E
S1131E1051E40E945C1388230CF560917401709165
S1131E207501072E000C880B990B0E9410149B015E
S1131E30AC01F60164817581868197810E947D12CF
S1131E409F7720E030E040E251E40E945C13882355
S1131E502CF482E090E00E94B80345CF60917401B5
S1131E6070917501C5010E9412053DCF0E94C10306
S1131E70813029F483E090E00E94B80334CF0E94BB
S1131E80FB0431CF0E94C103823029F484E090E046
S1131E900E94B80313C00E94C103811105C082E0EF
S1131EA090E00E94B8030AC060918E0170918F0186
S1131EB080919001909191010E94A3062BB1CE01D3
S1131EC0F801008002C0880F991F0A94E2F7822B60
S1131ED08BB909CF0E94C103823029F083E090E0DE
S1131EE00E94B8030AC06091090170910A018091AF
S1131EF00B0190910C010E9412059BB19E01F80107
S1131F00008002C0220F331F0A94E2F7822F8095CB
S1131F1089238BB9E8CE0E94A40D82E090E00E9450
S1131F20B803E1CE0E94AD0D80E090E00E94B803BA
S1131F30DACE1F920F920FB60F9211248F939F93B4
S1131F4081E090E090937901809378019F918F9143
S1131F500F900FBE0F901F9018951F920F920FB6FF
S1131F600F9211248F939F93809176019091770122
S1131F70892B31F481E090E090937701809376018E
S1131F809F918F910F900FBE0F901F901895589AA4
S1131F90599A5A9A8CE08093B800E9E6F0E080817F
S1131FA08062808380818F7E8083EA9A789408950A
S1131FB01F93CF93DF93182FD62FC42F0E94C70FE0
S1131FC094EA9093BC00ECEBF0E090819923ECF759
S1131FD090E59093BB0094E89093BC00ECEBF0E0A8
S1131FE090819923ECF79091B900987F903229F46D
S1131FF084E98093BC0080E02DC081E08093BB0025
S113200084E88093BC00ECEBF0E090819923ECF73A
S11320101093BB0084E88093BC00ECEBF0E080817B
S11320208823ECF7D093BB0084E88093BC00ECEBEE
S1132030F0E080818823ECF7C093BB0084E88093B0
S1132040BC00ECEBF0E080818823ECF784E980931A
S1132050BC0081E0DF91CF911F910895CF93DF936E
S11320609C0184EA8093BC00ECEBF0E0908199231E
S1132070ECF781E58093BB0084E88093BC00ECEB33
S1132080F0E090819923ECF78091B900887F88343F
S113209029F484E98093BC0080E041C084EC8093FF
S11320A0BC00ECEBF0E090819923ECF74091BB008D
S11320B0461309C0842F90E001971816190644F0BE
S11320C040E050E01AC084E98093BC0080E027C05F
S11320D0D90150E041505109B901640F751FECEB6F
S11320E0F0E084ECCBEBD0E0808390819923ECF793
S11320F098819D93A617B707B9F784E88093BC002D
S1132100ECEBF0E090819923ECF78091BB00F901AE
S1132110E40FF51F808384E98093BC0081E0DF91A4
S1132120CF91089520E030E0ECEBF0E0808188234B
S113213034F02F5F3F4F293E83E03807B9F781E041
S1132140283E334009F480E008958093BB0084E87E
S11321508093BC000E949210882319F08091B900EA
S1132160887F0895CF93C82F94EA9093BC000E946F
S11321709210882361F08C2F880F0E94A510803262
S113218029F484E98093BC0080E001C081E0CF9110
S113219008950E94C70F88E50E94B210882309F4AD
S11321A0CDC080E30E94A510882309F4C9C081E052
S11321B00E94A510882309F4C5C084E98093BC005B
S11321C083EC99E00197F1F700C0000088E50E94D4
S11321D0B210882309F4B8C080E00E94A5108823B7
S11321E009F4B4C080E00E94A510882309F4B0C0AB
S11321F080E00E94A510882309F4ACC080E00E940E
S1132200A510882309F4A8C080E00E94A5108823A3
S113221009F4A4C080E00E94A510882309F4A0C09A
S113222080E00E94A510882309F49CC080E90E94E4
S1132230A510882309F498C084E98093BC0083EC3A
S113224099E00197F1F700C0000088E50E94B21000
S1132250882309F48BC087E00E94A510882309F421
S113226087C080E00E94A510882309F483C081E41C
S11322700E94A510882309F47FC084E98093BC00E0
S113228083EC99E00197F1F700C0000088E50E9413
S1132290B210882309F472C08AE10E94A510882331
S11322A009F46EC080E40E94A510882309F46AC072
S11322B080E00E94A510882309F466C084E9809315
S11322C0BC0083EC99E00197F1F700C0000088E5B9
S11322D00E94B210882309F459C083E30E94A51018
S11322E0882309F455C083E00E94A510882309F4CB
S11322F051C084E98093BC0083EC99E00197F1F725
S113230000C0000088E50E94B210882309F444C08C
S113231080E30E94A510882309F440C088E00E944D
S1132320A5108823E9F184E98093BC0083EC99E04B
S11323300197F1F700C0000081E0089580E008955E
S113234080E0089580E0089580E0089580E0089595
S113235080E0089580E0089580E0089580E0089585
S113236080E0089580E0089580E0089580E0089575
S113237080E0089580E0089580E0089580E0089565
S113238080E0089580E0089580E0089580E0089555
S113239080E0089580E0089580E0089580E0089545
S11323A080E00895CF93C82F84EA8093BC000E94F4
S11323B09210882369F08C2F880F8F5F0E94A510DC
S11323C0883429F484E98093BC0080E001C081E072
S11323D0CF9108950F931F93CF93DF93CDB7DEB7BB
S11323E060970FB6F894DEBF0FBECDBF8C01FE011F
S11323F0319680E1DF011D928A95E9F788E50E9414
S1132400B210882309F469C086E30E94A5108823CA
S113241009F465C084E98093BC00B8E0BA95F1F78B
S1132420000088E50E94D211882309F45AC0BE0135
S11324306F5F7F4FAE01405F5F4FECEBF0E084ECE9
S11324402BEB30E0808390819923ECF7D9019C91A8
S1132450DB019D93BD01A417B507A1F784E8809320
S1132460BC00ECEBF0E080818823ECF78091BB00AA
S1132470888B84E98093BC00BE016C5F7F4FF801B8
S1132480085E1F4FDB012C91322F3073CB01029772
S1132490DC018C9190E0B0E13B9F800D911D1124F3
S11324A091838083422F407C50E0440F551F440F9A
S11324B0551FCB010197DC018C91480F511D5383AB
S11324C042832F7030E0358324836D5F7F4F3696CF
S11324D0E017F107B9F681E005C080E003C080E0B1
S11324E001C080E060960FB6F894DEBF0FBECDBF8A
S11324F0DF91CF911F910F9108955058BB27AA27C0
S11325000E9495120C94D8140E949F1438F00E94D3
S1132510A61420F039F49F3F19F426F40C94751492
S11325200EF4E095E7FB0C946F14E92F0E94FD1460
S113253058F3BA17620773078407950720F079F4F4
S1132540A6F50C941F150EF4E0950B2EBA2FA02DB2
S11325500B01B90190010C01CA01A0011124FF274C
S1132560591B99F0593F50F4503E68F11A16F04047
S1132570A22F232F342F4427585FF3CF4695379546
S11325802795A795F0405395C9F77EF41F16BA0B0B
S1132590620B730B840BBAF09150A1F0FF0FBB1FB9
S11325A0661F771F881FC2F70EC0BA0F621F731F02
S11325B0841F48F4879577956795B795F7959E3F5F
S11325C008F0B0CF9395880F08F09927EE0F9795F0
S11325D0879508950E949F1460F080E891E009F4C3
S11325E09EEF0E94A61428F040E851E071F45EEFDB
S11325F00CC00C9475140C941F15E92FE0780E94FC
S1132600FD1440F3092E052AB1F3261737074807AE
S1132610590738F00E2E07F8E02569F0E025E0644C
S11326200AC0EF6307F8009407FADB01B9019D01C2
S1132630DC01CA01AD01EF930E947D130E94D814FE
S11326400E942D135F91552339F02BED3FE049E4AF
S113265050FD49EC0C947E120895DF93DD27B92FC9
S1132660BF7740E85FE31616170648075B0718F4C0
S1132670D92F0E942B159F938F937F936F930E9462
S1132680EE15EAECF0E00E9478140E94D8142F9121
S11326903F914F915F910E944615DD2351F0905870
S11326A0A2EA2AED3FE049EC5FE3D0785D270E947F
S11326B09512DF910C94D8140E944B1408F481E015
S11326C008950E94AF14E3950C94E9140E947A13C0
S11326D00C94D8140E94A61458F00E949F1440F041
S11326E029F45F3F29F00C946F1451110C942015B8
S11326F00C9475140E94FD1468F39923B1F35523C7
S113270091F3951B550BBB27AA2762177307840700
S113271038F09F5F5F4F220F331F441FAA1FA9F396
S113272035D00E2E3AF0E0E832D091505040E69584
S1132730001CCAF72BD0FE2F29D0660F771F881FE5
S1132740BB1F261737074807AB07B0E809F0BB0BD8
S1132750802DBF01FF2793585F4F3AF09E3F5105EC
S113276078F00C946F140C9420155F3FE4F3983EBA
S1132770D4F3869577956795B795F7959F5FC9F7D5
S1132780880F911D9695879597F90895E1E0660F56
S1132790771F881FBB1F621773078407BA0720F0CF
S11327A0621B730B840BBA0BEE1F88F7E095089538
S11327B00E94DF136894B1110C94201508950E94AF
S11327C0051588F09F5798F0B92F9927B751B0F0A5
S11327D0E1F0660F771F881F991F1AF0BA95C9F7A1
S11327E014C0B13091F00E941F15B1E008950C940B
S11327F01F15672F782F8827B85F39F0B93FCCF3BE
S1132800869577956795B395D9F73EF4909580951D
S1132810709561957F4F8F4F9F4F0895E89409C03D
S113282097FB3EF490958095709561957F4F8F4FFF
S11328309F4F9923A9F0F92F96E9BB279395F69515
S1132840879577956795B795F111F8CFFAF4BB0F93
S113285011F460FF1BC06F5F7F4F8F4F9F4F16C0F7
S1132860882311F096E911C0772321F09EE8872F81
S1132870762F05C0662371F096E8862F70E060E03D
S11328802AF09A95660F771F881FDAF7880F9695B6
S1132890879597F90895990F0008550FAA0BE0E85A
S11328A0FEEF16161706E807F907C0F0121613060E
S11328B0E407F50798F0621B730B840B950B39F44E
S11328C00A2661F0232B242B252B21F408950A26B4
S11328D009F4A140A6958FEF811D811D089597F9F4
S11328E09F6780E870E060E008959FEF80EC0895B2
S11328F0DF93CF931F930F93FF92EF92DF927B01AD
S11329008C01689406C0DA2EEF010E944615FE0180
S1132910E894A5912591359145915591A6F3EF0140
S11329200E949512FE019701A801DA9469F7DF90DD
S1132930EF90FF900F911F91CF91DF9108950024A4
S11329400A941616170618060906089500240A9410
S1132950121613061406050608950C9475140E94A5
S11329600515D8F3E894E0E0BB279F57F0F02AED73
S11329703FE049EC06C0EE0FBB0F661F771F881FB0
S113298028F0B23A62077307840728F0B25A620B40
S1132990730B840BE3959A9572F7803830F49A950B
S11329A0BB0F661F771F881FD2F790480C94F4154D
S11329B0092E0394000C11F4882352F0BB0F40F449
S11329C0BF2B11F460FF04C06F5F7F4F8F4F9F4F89
S11329D00895EF93E0FF07C0A2EA2AED3FE049EC37
S11329E05FEB0E9495120E94D8140F90039401FC8F
S11329F09058E7EFF0E00C94071657FD9058440FF9
S1132A00551F59F05F3F71F04795880F97FB991F49
S1132A1061F09F3F79F08795089512161306140606
S1132A20551FF2CF4695F1DF08C016161706180693
S1132A30991FF1CF86957105610508940895E8946E
S1132A40BB2766277727CB0197F908950E944B147B
S1132A5008F48FEF08959B01AC0160E070E080E81A
S1132A609FE30C9466130E9446150C94D8140E949C
S1132A709F1438F00E94A61420F0952311F00C94B2
S1132A806F140C94751411240C9420150E94FD14D9
S1132A9070F3959FC1F3950F50E0551F629FF001AD
S1132AA0729FBB27F00DB11D639FAA27F00DB11DC6
S1132AB0AA1F649F6627B00DA11D661F829F22274F
S1132AC0B00DA11D621F739FB00DA11D621F839FD6
S1132AD0A00D611D221F749F3327A00D611D231FAC
S1132AE0849F600D211D822F762F6A2F11249F57FA
S1132AF050409AF0F1F088234AF0EE0FFF1FBB1FFD
S1132B00661F771F881F91505040A9F79E3F5105BB
S1132B1080F00C946F140C9420155F3FE4F3983EFE
S1132B20D4F3869577956795B795F795E7959F5F65
S1132B30C1F7FE2B880F911D9695879597F90895F7
S1132B409F930E94AF140F9007FCEE5F0C94E9145E
S1132B5019F416F40C9475140C94F2150E940515CE
S1132B60B8F39923C9F3B6F39F57550B87FF0E9417
S1132B7000160024A0E640EA9001805856959795E7
S1132B8028F4805C660F771F881F20F0261737070C
S1132B90480730F4621B730B840B202931294A2B1C
S1132BA0A69517940794202531254A2758F7660FD0
S1132BB0771F881F20F026173707480730F4620B69
S1132BC0730B840B200D311D411DA09581F7B901B4
S1132BD0842F9158880F9695879508959B01AC0191
S1132BE00C9433159F3F31F0915020F487957795DD
S1132BF06795B795880F911D9695879597F90895D0
S1132C0091505040660F771F881FD2F708959F9305
S1132C108F937F936F93FF93EF939B01AC010E947B
S1132C203315EF91FF910E9478142F913F914F91AA
S1132C305F910C943315EE0FFF1F0590F491E02D76
S1092C400994F894FFCF93
S1132C4600E100000000084600F1FF8DFF0500FBCF
S1132C56CB16C0F90F49BF00000000F90F493FFB2E
S1072C66CB16400045
S9030000FC
